:100000000C9462000C948A000C948A000C948A0070
:100010000C948A000C948A000C948A000C948A0038
:100020000C948A000C948A000C948A000C948A0028
:100030000C948A000C94450B0C948A000C948A0052
:100040000C94A30A0C948A000C94130B0C94ED0AE4
:100050000C948A000C948A000C948A000C948A00F8
:100060000C9484090C948A000000000024002700EE
:100070002A0000000000250028002B0000000000DE
:1000800023002600290004040404040404040202DA
:100090000202020203030303030301020408102007
:1000A0004080010204081020010204081020000012
:1000B0000008000201000003040700000000000027
:1000C00000006C0B11241FBECFEFD8E0DEBFCDBF08
:1000D00011E0A0E0B1E0E0E5F4E202C005900D928D
:1000E000AA3CB107D9F723E0AAECB1E001C01D9208
:1000F000A537B207E1F710E0C2E6D0E004C02197CF
:10010000FE010E941010C136D107C9F70E94580C99
:100110000C9426120C94000020915102260F3327D4
:10012000331F21323105ECF420917702FC0190E07D
:1001300080E0243069F082E00895A091510221917D
:10014000AC01415D5D4FA40FB52FB11D2C930196FD
:10015000861798F380915102680F6093510280E0F6
:10016000089581E00895089508950895E091260284
:1001700080912502E81730F4F0E0EB5FFD4F8081BD
:1001800090E008958FEF9FEF08959091260280915F
:1001900025022FEF3FEF981748F4E92FF0E0EB5FCF
:1001A000FD4F208130E09F5F90932602C9010895A2
:1001B0008091250290912602891B990B0895CF9278
:1001C000DF92EF92FF920F931F93CF93DF937C0107
:1001D000CB018A0120910402222389F0EB016B01FB
:1001E000C40ED51ECC15DD0569F06991D701ED91DE
:1001F000FC910190F081E02DC7010995F3CF642FA8
:100200000E948C00C801DF91CF911F910F91FF9048
:10021000EF90DF90CF900895CF93DF931F92CDB7EB
:10022000DEB76983209104022223F9F0209127028E
:10023000203258F021E030E0FC013383228390E04B
:1002400080E00F90DF91CF91089580912802E82FF0
:10025000F0E0EC51FE4F998190838F5F80932802EC
:100260008093270281E090E0ECCF61E0CE0101961F
:100270000E948C00F7CF833081F028F4813099F010
:100280008230A9F008958730A9F08830C9F0843011
:10029000B1F4809180008F7D03C0809180008F77C2
:1002A00080938000089584B58F7784BD089584B5C8
:1002B0008F7DFBCF8091B0008F778093B000089541
:1002C0008091B0008F7DF9CFCF93DF93282F30E05E
:1002D000F901E255FF4F8491F901E656FF4FD491A1
:1002E000F901EA57FF4FC491CC23A1F081110E947C
:1002F0003B01EC2FF0E0EE0FFF1FE458FF4FA591FC
:10030000B491EC91ED2381E090E009F480E0DF917D
:10031000CF91089580E090E0FACF1F93CF93DF93C1
:10032000282F30E0F901E255FF4F8491F901E6569C
:10033000FF4FD491F901EA57FF4FC491CC23A9F0A4
:10034000162F81110E943B01EC2FF0E0EE0FFF1FF2
:10035000EE58FF4FA591B4918FB7F894EC9111111D
:1003600008C0D095DE23DC938FBFDF91CF911F9122
:100370000895DE2BF8CF1092770281E08093790206
:100380001092780261E082E10E948D0161E083E1D8
:100390000E948D01E9EBF0E080818E7F8083808177
:1003A0008D7F808388E48093B80085E48093BC00CF
:1003B0000895CF93DF9391E090932E028823B9F0B4
:1003C000C091B800D091BA008091BC008A7B809324
:1003D000BC0060E082E10E948D0160E083E10E9448
:1003E0008D010E94BB01D093BA00C093B800DF9189
:1003F000CF910895CF93DF9390E0FC01E656FF4F35
:1004000024918A579F4FFC0184918823C9F090E082
:10041000880F991FFC01E859FF4FA591B491FC0189
:10042000EE58FF4FC591D49161110DC09FB7F8945C
:100430008C91209582238C938881282328839FBFC9
:10044000DF91CF910895623051F49FB7F8943C91B9
:10045000822F809583238C93E8812E2BEFCF8FB74B
:10046000F894EC912E2B2C938FBFEACF3FB7F894E2
:100470008091E0019091E101A091E201B091E3014E
:1004800026B5A89B05C02F3F19F00196A11DB11DEF
:100490003FBFBA2FA92F982F8827BC01CD01620F2B
:1004A000711D811D911D42E0660F771F881F991FE6
:1004B0004A95D1F708958F929F92AF92BF92CF92B3
:1004C000DF92EF92FF924B015C010E9436026B01BA
:1004D0007C010E9436026C197D098E099F09683ED5
:1004E000734081059105A8F321E0821A9108A108C3
:1004F000B10888EEC80E83E0D81EE11CF11C8114FF
:100500009104A104B10429F7FF90EF90DF90CF9000
:10051000BF90AF909F908F900895AF92BF92CF926F
:10052000DF92EF92FF920F931F93CF93DF936C01B3
:100530007B018B01040F151FEB015E01AE18BF0894
:10054000C017D10759F06991D601ED91FC91019046
:10055000F081E02DC6010995892B79F7C501DF915E
:10056000CF911F910F91FF90EF90DF90CF90BF90B0
:10057000AF900895FC01538D448D252F30E0842FDA
:1005800090E0821B930B541710F0CF9608950197BB
:100590000895FC01918D828D981761F0A28DAE0FA8
:1005A000BF2FB11D5D968C91928D9F5F9F73928F2F
:1005B00090E008958FEF9FEF0895FC01918D828D5B
:1005C000981731F0828DE80FF11D858D90E0089528
:1005D0008FEF9FEF0895FC01918D228D892F90E080
:1005E000805C9F4F821B91098F739927089589EA38
:1005F00092E00E94EB0221E0892B09F420E0822F97
:10060000089580E090E0892B29F00E94F702811183
:100610000C9400000895FC01A48DA80FB92FB11D02
:10062000A35ABF4F2C91848D90E001968F73992728
:10063000848FA689B7892C93A089B1898C91837006
:1006400080648C93938D848D981306C00288F389FF
:10065000E02D80818F7D80830895EF92FF920F932C
:100660001F93CF93DF93EC0181E0888F9B8D8C8D5E
:1006700098131AC0E889F989808185FF15C09FB752
:10068000F894EE89FF896083E889F9898081837015
:10069000806480839FBF81E090E0DF91CF911F91C4
:1006A0000F91FF90EF900895F62E0B8D10E00F5FE5
:1006B0001F4F0F731127E02E8C8D8E110CC00FB6BB
:1006C00007FCFACFE889F989808185FFF5CFCE0153
:1006D0000E940B03F1CFEB8DEC0FFD2FF11DE35AC0
:1006E000FF4FF0829FB7F8940B8FEA89FB898081D6
:1006F0008062CFCFCF93DF93EC01888D8823B9F050
:10070000AA89BB89E889F9898C9185FD03C080811C
:1007100086FD0DC00FB607FCF7CF8C9185FFF2CF99
:10072000808185FFEDCFCE010E940B03E9CFDF91E1
:10073000CF910895CF92DF92EF92FF920F931F9384
:10074000CF93DF93FC01C48121E020930402C09386
:10075000D50110922802109227028485682B8DE91A
:1007600092E00E940C01D0912702D13208F092C091
:100770000E9436026B017C0180917702811165C075
:1007800082E08093770281E0809379028FEF8093FB
:10079000760210929B02D0939A02A4EEB1E0EAE7AF
:1007A000F2E080E0D81385C010929C0280919C02F8
:1007B000CC0FC82BC0939C0280917802813009F045
:1007C0007CC0109278020E9436026B017C018091FD
:1007D0009C028093BB0080912A0290912B02A091F1
:1007E0002C02B0912D02892B8A2B8B2B99F00E9421
:1007F000360200912A0210912B0220912C02309196
:100800002D026C197D098E099F0906171707280705
:100810003907E0F18091BC0083FDD9CF85EC80934E
:10082000BC000E9436026B017C018091770282300D
:1008300009F445C0809176028F3F61F18091760284
:10084000803241F18091760225C080912A029091F8
:100850002B02A0912C02B0912D02892B8A2B8B2B7D
:1008600009F48ACF0E94360200912A0210912B02CD
:1008700020912C0230912D026C197D098E099F095F
:10088000061717072807390708F076CF8091290245
:100890000E94D9011092280210922702109204029D
:1008A000DF91CF911F910F91FF90EF90DF90CF904C
:1008B00008959D9191938F5F75CF85EEB0CF809114
:1008C0002A0290912B02A0912C02B0912D02892B2B
:1008D0008A2B8B2B09F4A9CF0E94360200912A02A1
:1008E00010912B0220912C0230912D026C197D0960
:1008F0008E099F09061717072807390708F095CFB3
:10090000C5CF089590E080E00895F8948091520357
:1009100090915303209152033091530323303105BA
:1009200031F0009721F01092530310925203789403
:100930000895F89420914A0330914B0340914E035F
:10094000423009F056C0A9014170552750934B031E
:1009500040934A0340914E03443021F43595279546
:100960003595279540914E03423011F435952795E2
:1009700040915103442309F449C040914F035091E1
:100980005003452F552737FF44C09A0120953095D5
:1009900078944091CC015091CD01240F351F3093B4
:1009A000CD012093CC014091CA015091CB01241775
:1009B0003507F1F0F901E41BF50BAF01613071056A
:1009C00031F46AE06E9FA0016F9F500D11243093A7
:1009D000CB012093CA01840F951F853FF1E09F074B
:1009E00014F084EF91E08530910514F485E090E0F7
:1009F000089540914E03443021F4A90143705527D6
:100A0000A5CF10924B0310924A03A4CF50E040E0D0
:100A1000BACF2115310509F4BBCF9A012F5F3F4FA3
:100A2000B7CF89E00E946401892BA9F489E00E9474
:100A30006401892BC1F089E00E9464010097D1F024
:100A40008CE00E94640131E020E0892B09F430E061
:100A5000832F922F08958CE00E946401892B31F737
:100A600082E090E008958CE00E946401892B19F3E4
:100A700083E090E0089560E0813009F061E086E075
:100A80000C948D018F929F92AF92BF92EF92FF9242
:100A90000F931F93CF93DF93CDB7DEB72E970FB68B
:100AA000F894DEBF0FBECDBF2EE0E6E0F1E0DE0140
:100AB000119601900D922A95E1F7BC01990F880BD0
:100AC000990B0E942D1120E030E048EC55E40E9483
:100AD000B91120E030E040EF52E40E9483104B0156
:100AE0005C01CE0101967C0110E000E0F70161910C
:100AF00071917F01660F771F072E000C880B990BF1
:100B00000E942D11A50194010E94B9119B01AC0115
:100B100060E074E284E79BE40E94831020E030E010
:100B200040E85FE30E9416100E94F510AB01BC0183
:100B3000C80101964F3F51056105710509F06CF53B
:100B40000330110509F443C054F50130110591F14A
:100B500002301105C1F18091B10081608093B10034
:100B60008091B1008D7F8093B1008091B1008B7F27
:100B70008093B1004093B3002E960FB6F894DEBF79
:100B80000FBECDBFDF91CF911F910F91FF90EF90DE
:100B9000BF90AF909F908F9008958C01A7CF0530A4
:100BA000110539F114F106301105A9F68091B10053
:100BB000816022C08091B1008E7F8093B1008091CE
:100BC000B1008260D0CF8091B1008160F6CF80917A
:100BD000B1008E7F8093B1008091B1008D7F8093B2
:100BE000B1008091B1008460C3CF8091B100816079
:100BF000F1CF8091B1008E7F8093B1008091B100E0
:100C00008260EDCFCF92DF92EF92FF920F931F930E
:100C1000CF93DF938091460387FD64C09091470393
:100C200097FD60C0909151039923A1F020914F034B
:100C300030915003225031093093500320934F03D9
:100C400020914F033091500337FF04C0109250039E
:100C500010924F030E94640120914903C0E02817BD
:100C6000190609F4C3E0809147030E9464012091B2
:100C700049032817190611F481E0C82780914C0315
:100C800090914D038C1B80FFA3C00C2E000CDD0B3C
:100C9000D0934D03C0934C0320914A0330914B03F2
:100CA0008270082E000C990B0197820F931F90936E
:100CB0004B0380934A0381E090915103992391F073
:100CC000882381F080914F0390915003883E9B4090
:100CD00048F480914F0390915003499690935003AC
:100CE00080934F038FB7F8944091DC015091DD0160
:100CF0006091DE017091DF018FBF80916003909160
:100D00006103A0916203B0916303481759076A0712
:100D10007B0740F41092600310926103109262030B
:100D2000109263038091480318163CF08111AAC009
:100D300090915603992309F4A5C000916003109186
:100D4000610320916203309163036A017B01C01A41
:100D5000D10AE20AF30A970186010A30110521053A
:100D6000310508F48FC04093600350936103609392
:100D700062037093630320915703982F222351F14C
:100D80008E3008F09E509770906490937C00809114
:100D90007A00806480937A0080917A0086FDFCCF8F
:100DA0009091780080917900892798278927409130
:100DB000640350916503841795078CF021E04091FE
:100DC000660350916703481759074CF020E007C0AD
:100DD00080E072CF0E94640121E0892BB9F3309149
:100DE000490332131EC0E0915803F0915903319624
:100DF000F0935903E093580380915C0390915D0355
:100E00006AE070E00E94DA0F6E177F0750F480915D
:100E10005503882331F083E090E09093530380934F
:100E2000520381E0382732131AC080915803909101
:100E30005903029780F080915203909153030397D6
:100E400051F584E090E09093530380935203109205
:100E50005B0310925A031092590310925803809129
:100E60005A0390915B03009769F0019790935B039D
:100E700080935A03892B31F485E090E090935303DB
:100E800080935203DF91CF911F910F91FF90EF90CC
:100E9000DF90CF90089520915A0330915B03223068
:100EA000310570F080915E0390915F036AE070E01D
:100EB0000E94DA0F2617370770F686E090E0C3CF5E
:100EC0008091540361E070E0882341F080915E03DB
:100ED00090915F036AE070E00E94DA0F70935B0309
:100EE00060935A03B8CF0F931F93CF938C01C62FF3
:100EF0000E949A036C2F6460C8010E949A036C2FB1
:100F00006B7FC8010E949A0383EC90E00197F1F790
:100F1000CF911F910F9108950F931F93CF93DF935C
:100F20008C01D62FC42F607F642B0E94730780E151
:100F3000D89FB00111246C2BC801DF91CF911F9174
:100F40000F910C947307CF93DF93CDB7DEB728973B
:100F50000FB6F894DEBF0FBECDBF98E0E4E1F1E03C
:100F6000DE01119601900D929A95E1F79091700330
:100F7000961710F46FEF690F262F30E0220F331F02
:100F800041E050E04C0F5D1F240F351FF9016081D7
:100F9000680F606840E088E693E028960FB6F89402
:100FA000DEBF0FBECDBFDF91CF910C948C0740E028
:100FB00061E088E693E00E948C078BE39FE1019754
:100FC000F1F780917103882321F060E080E00C94B8
:100FD000A307089541E00E948C0781E090E0089506
:100FE00085ED8093BC0080912A0290912B02A09104
:100FF0002C02B0912D020796A11DB11D23E0B695DC
:10100000A795979587952A95D1F72091BC0024FD47
:1010100003C010927702089540912A0250912B024A
:1010200060912C0270912D02452B462B472B69F3C2
:101030000097A105B10541F025E32A95F1F70000DD
:101040000197A109B109E1CF809129020C94D9013E
:10105000FB0101900020E9F73197AF01461B570BC8
:10106000DC01ED91FC910280F381E02D09948F92D7
:101070009F92AF92BF92EF92FF920F931F93CF93E5
:10108000DF93CDB7DEB7A1970FB6F894DEBF0FBEE2
:10109000CDBF7C01FA01CB0119A2223008F42AE06D
:1010A0008E010F5D1F4F822E912CB12CA12CBF0100
:1010B000A50194010E94EE0FF901CA016A300CF5F6
:1010C000605DD8016E938D01232B242B252B79F79E
:1010D00090E080E0109721F0BD01C7010E94280830
:1010E000A1960FB6F894DEBF0FBECDBFDF91CF91B2
:1010F0001F910F91FF90EF90BF90AF909F908F90B6
:101100000895695CDECFCF92DF92EF92FF920F934A
:101110001F93CF93DF936B01770FEE08FF08F7FE65
:101120001FC0EC01E881F9810190F081E02D6DE2B2
:1011300009958C0144275527BA014C195D096E09A0
:101140007F092AE0CE010E943708800F911FDF91AE
:10115000CF911F910F91FF90EF90DF90CF90089566
:101160002AE0B701A601DF91CF911F910F91FF9067
:10117000EF90DF90CF900C9437080C942808EF92F2
:10118000FF921F93CF93DF93182FEB017A01EC1698
:10119000FD0664F0612F8C2F0E94A30768E571E0C3
:1011A00088E693E00E94BD082196F1CFDF91CF91B0
:1011B0001F91FF90EF9008950F931F932091D401FA
:1011C0002817190651F021E0009709F420E0209338
:1011D000D4011092D3011092D2014FB7F89400912C
:1011E000DC011091DD012091DE013091DF014FBF64
:1011F0004091CE015091CF016091D0017091D10109
:1012000040575E4F6F4F7F4F04171507260737076C
:10121000B8F10093CE011093CF012093D001309309
:10122000D1012091D2013091D301019761F161E0A8
:1012300088E0820F2430310564F124303105A1F4B7
:1012400061E08CE00E94A3076EE471E088E693E021
:101250000E94BD088091D2019091D3010196909394
:10126000D3018093D2010CC040E150E068E070E00F
:1012700081E090E00E94BF081092D3011092D20149
:101280001F910F9108952430310544F461E08CE002
:10129000821B0E94A3076CE471E0D8CF2430310593
:1012A00019F761E088E00E94A30760E571E0CECF06
:1012B000CF93DF93EC014EE050E06EE070E08B30B6
:1012C00091053CF08536910544F44FE050E06FE025
:1012D00070E090E080E00E94BF0860E080E00E9443
:1012E000A30762E571E088E693E00E94BD08BE01B5
:1012F00088E693E00E9483086AE571E088E693E05F
:10130000DF91CF910C94BD081F920F920FB60F92F0
:1013100011242F933F934F935F936F937F938F93FA
:101320009F93AF93BF93EF93FF938091B900887F12
:10133000803609F44AC0F0F5883209F4A7C018F5E0
:10134000803109F49BC0B8F4882309F4F9C08830CF
:1013500009F494C0FF91EF91BF91AF919F918F914C
:101360007F916F915F914F913F912F910F900FBEA1
:101370000F901F901895883109F488C0803251F77A
:101380008093760214C0803409F49DC040F4803309
:10139000B9F38833F9F68093760285ECB0C08035D6
:1013A00009F485C0883509F496C0883499F60E94FE
:1013B000F007D0CF883909F48CC038F5883729F088
:1013C00050F4883611F0803729F683E08093770255
:1013D0001092750257C0883809F47BC0803919F023
:1013E000803809F0B7CF80917502803208F071C063
:1013F000E091750281E08E0F809375028091BB00B1
:10140000F0E0EB5AFD4F80833DC0803B39F0E0F4C3
:10141000803A09F479C0883A09F09CCF84E080933F
:1014200077021092520210925102E0914F02F09115
:10143000500209958091510281110FC081E0809383
:10144000510210922F0209C0803C09F4A6CF883CBB
:1014500009F4A3CF883B09F07DCFE091520281E0EF
:101460008E0F80935202F0E0E15DFD4F808180930A
:10147000BB00909152028091510229C080919C0240
:101480008093BB0085EC8093BC0064CF90919B025D
:1014900080919A02981758F5E0919B0281E08E0F97
:1014A00080939B02F0E0E658FD4F8081E9CFE09108
:1014B0009B0281E08E0F80939B028091BB00F0E045
:1014C000E658FD4F808390919B0280919A02981775
:1014D000C8F285E8D8CFE0919B0281E08E0F80931F
:1014E0009B028091BB00F0E0E658FD4F8083809125
:1014F000790281115CCF81E08093780284EA809345
:10150000BC001092770226CF85EC8093BC0010922D
:10151000770280917502803230F4E0917502F0E03C
:10152000EB5AFD4F10826091750270E0E09153021A
:10153000F091540285E592E00995109275020ACF68
:101540001092760234CF1F920F920FB60F92112491
:101550002F933F938F939F93AF93BF938091DC0121
:101560009091DD01A091DE01B091DF013091DB01AE
:1015700023E0230F2D3758F50196A11DB11D2093AF
:10158000DB018093DC019093DD01A093DE01B09339
:10159000DF018091E0019091E101A091E201B09121
:1015A000E3010196A11DB11D8093E0019093E1013B
:1015B000A093E201B093E301BF91AF919F918F910E
:1015C0003F912F910F900FBE0F901F90189526E816
:1015D000230F0296A11DB11DD2CF1F920F920FB6FD
:1015E0000F9211242F933F934F935F936F937F93A9
:1015F0008F939F93AF93BF93EF93FF9389EA92E00A
:101600000E940B03FF91EF91BF91AF919F918F913A
:101610007F916F915F914F913F912F910F900FBEEE
:101620000F901F9018951F920F920FB60F921124D2
:101630002F938F939F93EF93FF93E091B902F091D3
:10164000BA028081E091BF02F091C00282FD1BC00E
:1016500090818091C2028F5F8F732091C3028217A5
:1016600041F0E091C202F0E0E755FD4F958F809385
:10167000C202FF91EF919F918F912F910F900FBE1A
:101680000F901F9018958081F4CF1F920F920FB684
:101690000F9211242F933F934F935F936F937F93F8
:1016A0008F939F93AF93BF93EF93FF93E091D601F6
:1016B000F091D7010995FF91EF91BF91AF919F9163
:1016C0008F917F916F915F914F913F912F910F90EB
:1016D0000FBE0F901F9018951092A00210929F02BB
:1016E00088EE93E0A0E0B0E08093A1029093A20284
:1016F000A093A302B093A40220E231E030939E02B3
:1017000020939D021092AC021092AB028093AD0226
:101710009093AE02A093AF02B093B00282E391E047
:101720009093AA028093A90285EC90E09093B60270
:101730008093B50284EC90E09093B8028093B70256
:1017400080EC90E09093BA028093B90281EC90E033
:101750009093BC028093BB0282EC90E09093BE0217
:101760008093BD0286EC90E09093C0028093BF020C
:101770001092C2021092C3021092C4021092C502CB
:1017800010926B0310926A0384E491E090936903D2
:10179000809368031092710380E280936C0380E170
:1017A0008093720382E0809373031092740380939A
:1017B000460383E0809347038AE0809348031092B6
:1017C000490310924B0310924A0310924D0310925A
:1017D0004C0384E080934E031092500310924F0309
:1017E00081E080935103109253031092520380932F
:1017F000540380935503109256031092570310928E
:1018000059031092580310925B0310925A0388EE0A
:1018100093E090935D0380935C0380E991E0909363
:101820005F0380935E031092600310926103109235
:101830006203109263031092650310926403109286
:1018400067031092660362E082E00E94FA018091D1
:10185000470387FD03C062E00E94FA0180914803BC
:1018600087FD03C062E00E94FA01809146030E9456
:101870006401209149032817190631F483E090E0B0
:1018800090934D0380934C03809147030E94640121
:10189000209149032817190651F480914C03909127
:1018A0004D0321E0822790934D0380934C030895CC
:1018B000789484B5826084BD84B5816084BD85B52B
:1018C000826085BD85B5816085BD80916E00816037
:1018D00080936E00109281008091810082608093DD
:1018E00081008091810081608093810080918000DF
:1018F0008160809380008091B10084608093B1000A
:101900008091B00081608093B00080917A00846003
:1019100080937A0080917A00826080937A0080912F
:101920007A00816080937A0080917A008068809349
:101930007A001092C100E091B902F091BA0282E0FF
:101940008083E091B502F091B6021082E091B70277
:10195000F091B8028FEC80831092C102E091BD0239
:10196000F091BE0286E08083E091BB02F091BC0260
:10197000808180618083E091BB02F091BC02808114
:1019800088608083E091BB02F091BC028081806816
:101990008083E091BB02F091BC0280818F7D8083C7
:1019A00061E671E089EA92E00E94280865E771E04B
:1019B00089EA92E00E94280860E089E00E94FA012A
:1019C00060E08CE00E94FA0161E087E00E94FA0189
:1019D00061E086E00E94FA0161E08BE00E94FA017A
:1019E00010922602109225021092280210922702CD
:1019F0000E94BB0183EB90E09093500280934F02D2
:101A000084EB90E0909354028093530210926D0304
:101A100080917303823018F098E090936D03809367
:101A2000700362E370E080E090E00E945B026091EE
:101A3000740388E693E00E949A0368EE73E080E006
:101A400090E00E945B0260E388E693E00E947307E7
:101A5000CBE4D6E4CE010197F1F760E388E693E0AA
:101A60000E9473072197F1F760E388E693E00E94F4
:101A7000730783E592E00197F1F760E288E693E06F
:101A80000E94730760916D03606240E088E693E016
:101A90000E948C0784E080936E0340E06CE088E64F
:101AA00093E00E948C070E94D70782E080936F0327
:101AB00040E066E088E693E00E948C0740E062E048
:101AC00088E693E00E948C078BE39FE10197F1F792
:101AD00088E08093740360E088E693E00E949A03B4
:101AE00080E1809381001092800080E49FE19093D8
:101AF00087008093860081E18093810082E096E0F8
:101B00009093D7018093D60181E080936F0010926B
:101B100051031092500310924F038091B0008F77C1
:101B20008093B0008091B00080648093B000809179
:101B3000B100877F8093B1008091B0008260809374
:101B4000B0008091B0008E7F8093B0008091B10092
:101B50008E7F8093B1008091B1008D7F8093B10022
:101B60008091B1008B7F8093B10080E0882E80E06F
:101B7000982E03E010E094E0E92EF12C22E0C22E32
:101B8000D12C35E0A32EB12CC0910401D0910501D8
:101B9000C330D10509F404C18CF4C130D10509F476
:101BA00040C0229709F490C08114910469F30E9407
:101BB000F702882349F30E940000E6CFC430D10524
:101BC00009F473C1259781F7809102019091030177
:101BD0000597B1F00E94D70760E080E00E94A3075C
:101BE00066EA71E088E693E00E94BD0861E080E06B
:101BF0000E94A30767EB71E088E693E00E94BD08AE
:101C0000B0920301A0920201B0920501A0920401DA
:101C10000E941105019741F6D0920501C09204017E
:101C2000C3CF0E94D70760E082E00E94A30768E765
:101C300071E088E693E00E94BD0861E084E00E94C4
:101C4000A30765E871E088E693E00E94BD082AE0FA
:101C500041E050E060E070E088E693E00E943708E1
:101C600041E06EE288E693E00E948C072AE040E0C3
:101C700050E0BA0188E693E00E9437082AE040E08D
:101C800050E0BA0188E693E00E94370860ED77E003
:101C900080E090E00E945B020E94D707D09303018E
:101CA000C09302010E9411058130910509F4B4CF5F
:101CB00044F4892B09F078CFB0920501A092040179
:101CC00073CF0497CCF370CF809100019091010104
:101CD0002091D9013091DA012817390731F090931A
:101CE000DA018093D9010E945809C091D8016C2F64
:101CF00070E08091D9019091DA010E94990490934B
:101D00000101809300010E948504059721F481E080
:101D1000C827C093D801209104013091050180911A
:101D20000201909103012817390721F18091B10038
:101D30008E7F8093B1008091B1008D7F8093B10040
:101D40008091B1008B7F8093B10080E00E943B05C1
:101D50000E94D7078091D9019091DA010E94580919
:101D600061E080E00E94A3076AE871E088E693E002
:101D70000E94BD080E9411058230910539F0039739
:101D800051F0D0920301C09202010ECF10930501D1
:101D900000930401F6CFF0920501E0920401F1CF27
:101DA00080910001909101012091D9013091DA01D7
:101DB0002817390761F09093DA018093D9010E94C6
:101DC00058098091D9019091DA010E944205C09191
:101DD000D8016C2F70E08091D9019091DA010E94B6
:101DE000990490930101809300010E948504059756
:101DF00089F481E0C827C093D8016FE871E089EACF
:101E000092E00E94BD086091D80170E089EA92E0FA
:101E10000E94830820910401309105018091020104
:101E20009091030128173907F9F00E94D707809194
:101E3000D9019091DA010E94580961E080E00E9486
:101E4000A3076BE971E088E693E00E94BD088091EA
:101E5000D9019091DA010E94420561E087E00E9479
:101E60008D0181E00E943B0590E080E00E94DC084B
:101E70000E9411058230910571F08330910581F047
:101E8000019721F4D0920501C0920401109303013F
:101E90000093020189CE1093050100930401F6CF4F
:101EA000F0920501E0920401F1CF80910001909140
:101EB00001012091D9013091DA012817390761F029
:101EC0009093DA018093D9010E9458098091D90139
:101ED0009091DA010E944205C091D8016C2F70E008
:101EE0008091D9019091DA010E94990490930101A7
:101EF000809300010E948504059789F481E0C8273A
:101F0000C093D8016FE871E089EA92E00E94BD08B1
:101F10006091D80170E089EA92E00E9483082091E4
:101F2000040130910501809102019091030128176D
:101F30003907F9F00E94D7078091D9019091DA0111
:101F40000E94580961E080E00E94A30761EA71E005
:101F500088E693E00E94BD088091D9019091DA0152
:101F60000E94420560E087E00E948D0181E00E94AE
:101F70003B0581E090E00E94DC080E941105823060
:101F8000910571F08330910581F0019721F4D09291
:101F90000501C0920401F0920301E092020104CE17
:101FA0001093050100930401F6CFF0920501E09231
:101FB0000401F1CFAA1BBB1B51E107C0AA1FBB1F25
:101FC000A617B70710F0A61BB70B881F991F5A95C5
:101FD000A9F780959095BC01CD010895A1E21A2E34
:101FE000AA1BBB1BFD010DC0AA1FBB1FEE1FFF1FBD
:101FF000A217B307E407F50720F0A21BB30BE40B0D
:10200000F50B661F771F881F991F1A9469F7609553
:102010007095809590959B01AC01BD01CF0108950D
:10202000EE0FFF1F0590F491E02D09945058BB2747
:10203000AA270E942E100C947F110E94711138F073
:102040000E94781120F039F49F3F19F426F40C9483
:102050006E110EF4E095E7FB0C946811E92F0E94D5
:10206000901158F3BA17620773078407950720F099
:1020700079F4A6F50C94B2110EF4E0950B2EBA2F5C
:10208000A02D0B01B90190010C01CA01A00111247E
:10209000FF27591B99F0593F50F4503E68F11A162A
:1020A000F040A22F232F342F4427585FF3CF4695BB
:1020B00037952795A795F0405395C9F77EF41F16DD
:1020C000BA0B620B730B840BBAF09150A1F0FF0FA7
:1020D000BB1F661F771F881FC2F70EC0BA0F621F93
:1020E000731F841F48F4879577956795B795F79583
:1020F0009E3F08F0B0CF9395880F08F09927EE0F18
:102100009795879508950E9497100C947F110E94CF
:10211000781158F00E94711140F029F45F3F29F0C6
:102120000C94681151110C94B3110C946E110E940F
:10213000901168F39923B1F3552391F3951B550B37
:10214000BB27AA2762177307840738F09F5F5F4F8A
:10215000220F331F441FAA1FA9F335D00E2E3AF0C9
:10216000E0E832D091505040E695001CCAF72BD0E1
:10217000FE2F29D0660F771F881FBB1F2617370732
:102180004807AB07B0E809F0BB0B802DBF01FF2764
:1021900093585F4F3AF09E3F510578F00C946811C8
:1021A0000C94B3115F3FE4F3983ED4F38695779592
:1021B0006795B795F7959F5FC9F7880F911D96951D
:1021C000879597F90895E1E0660F771F881FBB1F79
:1021D000621773078407BA0720F0621B730B840B26
:1021E000BA0BEE1F88F7E09508950E94FC106894E2
:1021F000B1110C94B31108950E94981188F09F5763
:1022000098F0B92F9927B751B0F0E1F0660F771F1A
:10221000881F991F1AF0BA95C9F714C0B13091F010
:102220000E94B211B1E008950C94B211672F782F7B
:102230008827B85F39F0B93FCCF3869577956795D5
:10224000B395D9F73EF490958095709561957F4F41
:102250008F4F9F4F0895E89409C097FB3EF49095E7
:102260008095709561957F4F8F4F9F4F9923A9F06F
:10227000F92F96E9BB279395F695879577956795FE
:10228000B795F111F8CFFAF4BB0F11F460FF1BC042
:102290006F5F7F4F8F4F9F4F16C0882311F096E9D5
:1022A00011C0772321F09EE8872F762F05C0662383
:1022B00071F096E8862F70E060E02AF09A95660F3C
:1022C000771F881FDAF7880F9695879597F90895F5
:1022D00097F99F6780E870E060E008959FEF80ECD9
:1022E000089500240A94161617061806090608957C
:1022F00000240A9412161306140605060895092EE2
:102300000394000C11F4882352F0BB0F40F4BF2B50
:1023100011F460FF04C06F5F7F4F8F4F9F4F089590
:1023200057FD9058440F551F59F05F3F71F0479586
:10233000880F97FB991F61F09F3F79F0879508956B
:10234000121613061406551FF2CF4695F1DF08C08A
:10235000161617061806991FF1CF869571056105A7
:1023600008940895E894BB2766277727CB0197F94F
:1023700008950E94CC110C947F110E94711138F0C5
:102380000E94781120F0952311F00C9468110C94A0
:102390006E1111240C94B3110E94901170F3959F4B
:1023A000C1F3950F50E0551F629FF001729FBB274C
:1023B000F00DB11D639FAA27F00DB11DAA1F649FE8
:1023C0006627B00DA11D661F829F2227B00DA11D9B
:1023D000621F739FB00DA11D621F839FA00D611D21
:1023E000221F749F3327A00D611D231F849F600D42
:1023F000211D822F762F6A2F11249F5750409AF06B
:10240000F1F088234AF0EE0FFF1FBB1F661F771FF6
:10241000881F91505040A9F79E3F510580F00C94C1
:1024200068110C94B3115F3FE4F3983ED4F38695A2
:1024300077956795B795F795E7959F5FC1F7FE2B61
:10244000880F911D9695879597F90895F894FFCF79
:10245000050001000100010008002000400080008C
:1024600000010004000040001400540000000000BF
:102470000C01DF008204B500D800C500B6000000E2
:1024800000002D038D02BA027A03EB02C902DD02BD
:1024900000000000EA078D02820481042D003E0046
:1024A0003C0046656564723A20006D6D2F6D696E63
:1024B00000426173696320456E636F6465722054E6
:1024C0006573743A000D0A0041725F506F77657250
:1024D00046656564005665723A0053544F50004398
:1024E00068616E6765204D6F6465005249474854C6
:1024F000004C454654004552523A204D4F56452017
:1025000053574954434800544F2053544F50205080
:0A2510004F534954494F4E3A000062
:00000001FF
