:100000000C9462000C948A000C948A000C948A0070
:100010000C948A000C948A000C948A000C948A0038
:100020000C948A000C948A000C948A000C948A0028
:100030000C948A000C94180C0C948A000C948A007E
:100040000C94760B0C948A000C94E60B0C94C00B69
:100050000C948A000C948A000C948A000C948A00F8
:100060000C94570A0C948A0000000000240027001A
:100070002A0000000000250028002B0000000000DE
:1000800023002600290004040404040404040202DA
:100090000202020203030303030301020408102007
:1000A0004080010204081020010204081020000012
:1000B0000008000201000003040700000000000027
:1000C00000003F0C11241FBECFEFD8E0DEBFCDBF34
:1000D00011E0A0E0B1E0E4E6F7E202C005900D9285
:1000E000A43CB107D9F723E0A4ECB1E001C01D9214
:1000F000A937B207E1F710E0C2E6D0E004C02197CB
:10010000FE010E946C11C136D107C9F70E942B0D68
:100110000C94B0130C940000F894809156039091C5
:10012000570320915603309157032330310531F0A6
:10013000009721F010925703109256037894089577
:1001400020915502260F3327331F21323105ECF45D
:1001500020917B02FC0190E080E0243069F082E095
:100160000895A09155022191AC014D5C5D4FA40F03
:10017000B52FB11D2C930196861798F380915502E7
:10018000680F6093550280E0089581E00895089516
:1001900008950895E0912A0280912902E81730F429
:1001A000F0E0E75FFD4F808190E008958FEF9FEFD3
:1001B000089590912A02809129022FEF3FEF98171E
:1001C00048F4E92FF0E0E75FFD4F208130E09F5FCA
:1001D00090932A02C90108958091290290912A02E0
:1001E000891B990B0895CF92DF92EF92FF920F93A4
:1001F0001F93CF93DF937C01CB018A0120910802EA
:10020000222389F0EB016B01C40ED51ECC15DD0550
:1002100069F06991D701ED91FC910190F081E02D99
:10022000C7010995F3CF642F0E94A000C801DF9198
:10023000CF911F910F91FF90EF90DF90CF90089595
:10024000CF93DF931F92CDB7DEB769832091080269
:100250002223F9F020912B02203258F021E030E0E7
:10026000FC013383228390E080E00F90DF91CF91F7
:10027000089580912C02E82FF0E0E851FE4F99811B
:1002800090838F5F80932C0280932B0281E090E01B
:10029000ECCF61E0CE0101960E94A000F7CF833041
:1002A00081F028F4813099F08230A9F008958730E8
:1002B000A9F08830C9F08430B1F4809180008F7D3E
:1002C00003C0809180008F7780938000089584B56B
:1002D0008F7784BD089584B58F7DFBCF8091B0006A
:1002E0008F778093B00008958091B0008F7DF9CF13
:1002F000CF93DF93282F30E0F901E255FF4F84912F
:10030000F901E656FF4FD491F901EA57FF4FC49126
:10031000CC23A1F081110E944F01EC2FF0E0EE0FF1
:10032000FF1FE458FF4FA591B491EC91ED2381E0BC
:1003300090E009F480E0DF91CF91089580E090E0B3
:10034000FACF1F93CF93DF93282F30E0F901E255C6
:10035000FF4F8491F901E656FF4FD491F901EA5716
:10036000FF4FC491CC23A9F0162F81110E944F0199
:10037000EC2FF0E0EE0FFF1FEE58FF4FA591B49168
:100380008FB7F894EC91111108C0D095DE23DC935F
:100390008FBFDF91CF911F910895DE2BF8CF109280
:1003A0007B0281E080937D0210927C0261E082E119
:1003B0000E94A10161E083E10E94A101E9EBF0E06C
:1003C00080818E7F808380818D7F808388E480938D
:1003D000B80085E48093BC000895CF93DF9391E04B
:1003E000909332028823B9F0C091B800D091BA003E
:1003F0008091BC008A7B8093BC0060E082E10E9417
:10040000A10160E083E10E94A1010E94CF01D0938D
:10041000BA00C093B800DF91CF910895CF93DF93D6
:1004200090E0FC01E656FF4F24918A579F4FFC0154
:1004300084918823C9F090E0880F991FFC01E85946
:10044000FF4FA591B491FC01EE58FF4FC591D49197
:1004500061110DC09FB7F8948C91209582238C93E5
:100460008881282328839FBFDF91CF910895623030
:1004700051F49FB7F8943C91822F809583238C93FD
:10048000E8812E2BEFCF8FB7F894EC912E2B2C9385
:100490008FBFEACF3FB7F8948091E4019091E501D6
:1004A000A091E601B091E70126B5A89B05C02F3FBA
:1004B00019F00196A11DB11D3FBFBA2FA92F982F8A
:1004C0008827BC01CD01620F711D811D911D42E085
:1004D000660F771F881F991F4A95D1F708958F924D
:1004E0009F92AF92BF92CF92DF92EF92FF924B0119
:1004F0005C010E944A026B017C010E944A026C1955
:100500007D098E099F09683E734081059105A8F316
:1005100021E0821A9108A108B10888EEC80E83E094
:10052000D81EE11CF11C81149104A104B10429F727
:10053000FF90EF90DF90CF90BF90AF909F908F9003
:100540000895AF92BF92CF92DF92EF92FF920F93F6
:100550001F93CF93DF936C017B018B01040F151F59
:10056000EB015E01AE18BF08C017D10759F06991C1
:10057000D601ED91FC910190F081E02DC601099525
:10058000892B79F7C501DF91CF911F910F91FF90D2
:10059000EF90DF90CF90BF90AF900895FC01538D06
:1005A000448D252F30E0842F90E0821B930B54174D
:1005B00010F0CF96089501970895FC01918D828DDA
:1005C000981761F0A28DAE0FBF2FB11D5D968C9173
:1005D000928D9F5F9F73928F90E008958FEF9FEFB2
:1005E0000895FC01918D828D981731F0828DE80F6E
:1005F000F11D858D90E008958FEF9FEF0895FC0128
:10060000918D228D892F90E0805C9F4F821B9109F4
:100610008F73992708958DEA92E00E94FF0221E0EE
:10062000892B09F420E0822F089580E090E0892B47
:1006300029F00E940B0381110C9400000895FC0125
:10064000A48DA80FB92FB11DA35ABF4F2C91848D33
:1006500090E001968F739927848FA689B7892C9390
:10066000A089B1898C91837080648C93938D848DE3
:10067000981306C00288F389E02D80818F7D8083E6
:100680000895EF92FF920F931F93CF93DF93EC01A6
:1006900081E0888F9B8D8C8D98131AC0E889F98929
:1006A000808185FF15C09FB7F894EE89FF8960832C
:1006B000E889F98980818370806480839FBF81E0AD
:1006C00090E0DF91CF911F910F91FF90EF900895EF
:1006D000F62E0B8D10E00F5F1F4F0F731127E02ECA
:1006E0008C8D8E110CC00FB607FCFACFE889F98902
:1006F000808185FFF5CFCE010E941F03F1CFEB8DE6
:10070000EC0FFD2FF11DE35AFF4FF0829FB7F894D5
:100710000B8FEA89FB8980818062CFCFCF93DF93F3
:10072000EC01888D8823B9F0AA89BB89E889F98909
:100730008C9185FD03C0808186FD0DC00FB607FC3E
:10074000F7CF8C9185FFF2CF808185FFEDCFCE0171
:100750000E941F03E9CFDF91CF910895CF92DF92DE
:10076000EF92FF920F931F93CF93DF93FC01C4810D
:1007700021E020930802C093D50110922C02109220
:100780002B028485682B81EA92E00E942001D0919F
:100790002B02D13208F092C00E944A026B017C0108
:1007A00080917B02811165C082E080937B0281E0B1
:1007B00080937D028FEF80937A0210929F02D093F4
:1007C0009E02A8EEB1E0EEE7F2E080E0D81385C02B
:1007D0001092A0028091A002CC0FC82BC093A0025F
:1007E00080917C02813009F07CC010927C020E94D2
:1007F0004A026B017C018091A0028093BB00809132
:100800002E0290912F02A0913002B0913102892BDB
:100810008A2B8B2B99F00E944A0200912E02109194
:100820002F0220913002309131026C197D098E091E
:100830009F090617170728073907E0F18091BC00C8
:1008400083FDD9CF85EC8093BC000E944A026B01E6
:100850007C0180917B02823009F445C080917A024C
:100860008F3F61F180917A02803241F180917A026A
:1008700025C080912E0290912F02A0913002B0915C
:100880003102892B8A2B8B2B09F48ACF0E944A02D2
:1008900000912E0210912F022091300230913102EE
:1008A0006C197D098E099F09061717072807390754
:1008B00008F076CF80912D020E94ED0110922C025B
:1008C00010922B0210920802DF91CF911F910F918D
:1008D000FF90EF90DF90CF9008959D9191938F5F5F
:1008E00075CF85EEB0CF80912E0290912F02A0910E
:1008F0003002B0913102892B8A2B8B2B09F4A9CFBE
:100900000E944A0200912E0210912F022091300283
:10091000309131026C197D098E099F09061717075E
:100920002807390708F095CFC5CF089590E080E0FB
:1009300008958F929F92AF92BF92CF92DF92EF92E3
:10094000FF92CF93DF936B017C01EA012FB7F894FC
:100950008091E0019091E101A091E201B091E30169
:100960002FBF4091D1015091D2016091D30170917C
:10097000D4014C5E5F4F6F4F7F4F481759076A078E
:100980007B0708F065C02091D0012111AEC0809393
:10099000D1019093D201A093D301B093D40181E00F
:1009A0008093D001C701B6010E9456126C177D07D3
:1009B0000CF05BC0BE01DD0F880B990B0E948E12FC
:1009C000A70196010E9472114B015C0120E030E00A
:1009D00048E452E40E94DF1120E030E048E453E4B0
:1009E000181684F02AE037ED43E25CE3C501B40158
:1009F0000E94431320E030E048E453E40E94431394
:100A00009B01AC018090000190900101A090020137
:100A1000B0900301C501B4010E9443139B01AC01D6
:100A2000C701B6010E9473116B017C011092D001C5
:100A30002AE037ED43EA5CE3C501B4010E9473117B
:100A40006093000170930101809302019093030170
:100A5000C701B601DF91CF91FF90EF90DF90CF906B
:100A6000BF90AF909F908F900895C617D70784F7D7
:100A7000BE01DD0F880B990B0E948E129B01AC0109
:100A8000C701B6010E9472114B015C0120E030E009
:100A900048E452E40E94DF1120E030E048E453E4EF
:100AA000181684F02AE037ED43E25CE3C501B40197
:100AB0000E94431320E030E048E453E40E944313D3
:100AC0009B01AC018090000190900101A090020177
:100AD000B0900301C501B4010E9443139B01AC0116
:100AE000C701B6010E9472119FCF109200011092AF
:100AF000010110920201109203018093D1019093A1
:100B0000D201A093D301B093D4011092D001A0CF11
:100B1000CF93DF93EC01F89480914E0390914F03B3
:100B200020915203223009F065C09C0121703327C7
:100B300030934F0320934E0320915203243021F42D
:100B4000959587959595879520915203223011F4BC
:100B50009595879520915503222309F458C020913B
:100B6000530330915403232F332797FF53C0C901F8
:100B70008095909578942091C7013091C801820F9B
:100B8000931F9093C8018093C7012091C5013091B4
:100B9000C6018217930701F1AC01421B530B9A0166
:100BA0004091C401442339F04AE0B901469F9001C5
:100BB000479F300D11249093C6018093C501C20F49
:100BC000D31FC53F71E0D70714F0C4EFD1E0C530A3
:100BD000D10514F4C5E0D0E00E948C00059731F4F3
:100BE0008091C40191E089278093C401CE01DF91F7
:100BF000CF91089520915203243021F49C01237059
:100C0000332796CF10924F0310924E0395CF30E0CA
:100C100020E0ABCF009709F4ADCFC9010196AACF70
:100C200089E00E947801892BA9F489E00E9478016B
:100C3000892BC1F089E00E9478010097D1F08CE007
:100C40000E94780131E020E0892B09F430E0832F05
:100C5000922F08958CE00E947801892B31F782E071
:100C600090E008958CE00E947801892B19F383E0CD
:100C700090E0089560E0813009F061E086E00C9436
:100C8000A1018F929F92AF92BF92EF92FF920F932A
:100C90001F93CF93DF93CDB7DEB72E970FB6F8949F
:100CA000DEBF0FBECDBF2EE0ECE0F1E0DE0111961D
:100CB00001900D922A95E1F7BC01990F880B990BD1
:100CC0000E948E1220E030E048EC55E40E9443136D
:100CD00020E030E040EF52E40E94E4114B015C015F
:100CE000CE0101967C0110E000E0F7016191719165
:100CF0007F01660F771F072E000C880B990B0E944F
:100D00008E12A50194010E9443139B01AC0160E087
:100D100074E284E79BE40E94E41120E030E040E8C4
:100D20005FE30E9472110E945612AB01BC01C80120
:100D300001964F3F51056105710509F06CF50330CF
:100D4000110509F443C054F50130110591F1023049
:100D50001105C1F18091B10081608093B100809153
:100D6000B1008D7F8093B1008091B1008B7F809323
:100D7000B1004093B3002E960FB6F894DEBF0FBEBD
:100D8000CDBFDF91CF911F910F91FF90EF90BF905A
:100D9000AF909F908F9008958C01A7CF05301105DB
:100DA00039F114F106301105A9F68091B100816086
:100DB00022C08091B1008E7F8093B1008091B100FC
:100DC0008260D0CF8091B1008160F6CF8091B10078
:100DD0008E7F8093B1008091B1008D7F8093B100B0
:100DE0008091B1008460C3CF8091B1008160F1CF68
:100DF0008091B1008E7F8093B1008091B1008260BC
:100E0000EDCFCF92DF92EF92FF920F931F93CF938C
:100E1000DF9380914A0387FD64C090914B0397FD57
:100E200060C0909155039923A1F020915303309114
:100E300054032250310930935403209353032091DB
:100E400053033091540337FF04C01092540310929F
:100E500053030E94780120914D03C0E02817190622
:100E600009F4C3E080914B030E94780120914D0367
:100E70002817190611F481E0C8278091500390913A
:100E800051038C1B80FFA3C00C2E000CDD0BD093F4
:100E90005103C093500320914E0330914F03827051
:100EA000082E000C990B0197820F931F90934F030C
:100EB00080934E0381E090915503992391F088230C
:100EC00081F08091530390915403883E9B4048F4F5
:100ED00080915303909154034996909354038093C7
:100EE00053038FB7F8944091E0015091E101609174
:100EF000E2017091E3018FBF8091640390916503DB
:100F0000A0916603B0916703481759076A077B07EA
:100F100040F41092640310926503109266031092DD
:100F2000670380914C0318163CF08111AAC0909180
:100F30005A03992309F4A5C0009164031091650335
:100F400020916603309167036A017B01C01AD10AC0
:100F5000E20AF30A970186010A30110521053105DD
:100F600008F48FC040936403509365036093660355
:100F70007093670320915B03982F222351F18E30E9
:100F800008F09E509770906490937C0080917A0056
:100F9000806480937A0080917A0086FDFCCF9091E6
:100FA00078008091790089279827892740916803E4
:100FB00050916903841795078CF021E040916A03F2
:100FC00050916B03481759074CF020E007C080E0B0
:100FD00072CF0E94780121E0892BB9F330914D0343
:100FE00032131EC0E0915C03F0915D033196F093E3
:100FF0005D03E0935C0380916003909161036AE07C
:1010000070E00E9436116E177F0750F480915903EB
:10101000882331F083E090E0909357038093560348
:1010200081E0382732131AC080915C0390915D03F0
:10103000029780F08091560390915703039751F5E2
:1010400084E090E0909357038093560310925F03DF
:1010500010925E0310925D0310925C0380915E0318
:1010600090915F03009769F0019790935F038093DD
:101070005E03892B31F485E090E0909357038093D1
:101080005603DF91CF911F910F91FF90EF90DF906A
:10109000CF90089520915E0330915F032230310597
:1010A00070F080916203909163036AE070E00E94A7
:1010B00036112617370770F686E090E0C3CF80918F
:1010C000580361E070E0882341F0809162039091C1
:1010D00063036AE070E00E94361170935F036093CF
:1010E0005E03B8CF85ED8093BC0080912E02909175
:1010F0002F02A0913002B09131020796A11DB11DBF
:1011000023E0B695A795979587952A95D1F72091D5
:10111000BC0024FD03C010927B02089540912E0272
:1011200050912F026091300270913102452B462B75
:10113000472B69F30097A105B10541F025E32A95F6
:10114000F1F700000197A109B109E1CF80912D02CB
:101150000C94ED010F931F93CF938C01C62F0E9427
:10116000AE036C2F6460C8010E94AE036C2F6B7FCE
:10117000C8010E94AE0383EC90E00197F1F7CF9194
:101180001F910F9108950F931F93CF93DF938C01BD
:10119000D62FC42F607F642B0E94AA0880E1D89FBD
:1011A000B00111246C2BC801DF91CF911F910F91D9
:1011B0000C94AA08CF93DF93CDB7DEB728970FB66C
:1011C000F894DEBF0FBECDBF98E0EAE1F1E0DE01AA
:1011D000119601900D929A95E1F7909174039617EC
:1011E00010F46FEF690F262F30E0220F331F41E01C
:1011F00050E04C0F5D1F240F351FF9016081680F0F
:10120000606840E08CE693E028960FB6F894DEBF65
:101210000FBECDBFDF91CF910C94C30840E061E0D9
:101220008CE693E00E94C3088BE39FE10197F1F7FE
:1012300080917503882321F060E080E00C94DA0847
:10124000089541E00E94C30881E090E00895FB0109
:1012500001900020E9F73197AF01461B570BDC01E5
:10126000ED91FC910280F381E02D09948F929F9281
:10127000AF92BF920F931F93CF93DF93CDB7DEB79B
:10128000A1970FB6F894DEBF0FBECDBF19A24230B2
:1012900008F44AE08E010F5D1F4F842E912CB12C73
:1012A000A12CA50194010E944A11E62FB901CA019F
:1012B000EA3004F5E05DD801EE938D01232B242B59
:1012C000252B79F790E080E0109729F0BD018CE69E
:1012D00093E00E942709A1960FB6F894DEBF0FBED7
:1012E000CDBFDF91CF911F910F91BF90AF909F9095
:1012F0008F900895E95CDFCFBC018CE693E00C94FD
:101300002709FF920F931F93CF93DF93F82EEB01E2
:101310008A016F2D8C2F0E94DA088EE591E00E94E1
:101320007C0921960C171D07A4F7DF91CF911F911F
:101330000F91FF9008950F931F932091CF012817CD
:10134000190651F021E0009709F420E02093CF0125
:101350001092CE011092CD014FB7F8940091E001A8
:101360001091E1012091E2013091E3014FBF4091E2
:10137000C9015091CA016091CB017091CC014057D5
:101380005E4F6F4F7F4F0417150726073707A8F1E9
:101390000093C9011093CA012093CB013093CC0173
:1013A0002091CD013091CE01019751F161E088E0AB
:1013B000820F2430310554F12430310591F461E07D
:1013C0008CE00E94DA0884E591E00E947C0980911B
:1013D000CD019091CE0101969093CE018093CD01E5
:1013E0000CC040E150E068E070E081E090E00E94D5
:1013F00081091092CE011092CD011F910F91089595
:101400002430310544F461E08CE0821B0E94DA084C
:1014100082E591E0DACF2430310519F761E088E008
:101420000E94DA0886E591E0D0CFCF92DF92EF926A
:10143000FF926C014FE050E06EE070E08BE0C81668
:10144000D10444F085E6C816D10444F44FE050E0DE
:101450006FE070E090E080E00E94810960E080E051
:101460000E94DA0888E591E00E947C090D2C000CAE
:10147000EE08FF084AE0C701B601F7FE0EC041E0E2
:101480006DE28CE693E00E94C30866277727CB01C4
:101490006C197D098E099F094AE00E94360980E691
:1014A00091E0FF90EF90DF90CF900C947C091F9219
:1014B0000F920FB60F9211242F933F934F935F9388
:1014C0006F937F938F939F93AF93BF93EF93FF930C
:1014D0008091B900887F803609F44AC0F0F58832DF
:1014E00009F4A7C018F5803109F49BC0B8F488232B
:1014F00009F4F9C0883009F494C0FF91EF91BF91CD
:10150000AF919F918F917F916F915F914F913F919B
:101510002F910F900FBE0F901F901895883109F4EE
:1015200088C0803251F780937A0214C0803409F465
:101530009DC040F48033B9F38833F9F680937A0282
:1015400085ECB0C0803509F485C0883509F496C0B3
:10155000883499F60E947208D0CF883909F48CC07B
:1015600038F5883729F050F4883611F0803729F69D
:1015700083E080937B021092790257C0883809F487
:101580007BC0803919F0803809F0B7CF809179029B
:10159000803208F071C0E091790281E08E0F809373
:1015A00079028091BB00F0E0E75AFD4F80833DC097
:1015B000803B39F0E0F4803A09F479C0883A09F0C8
:1015C0009CCF84E080937B021092560210925502C9
:1015D000E0915302F09154020995809155028111D6
:1015E0000FC081E0809355021092330209C0803C05
:1015F00009F4A6CF883C09F4A3CF883B09F07DCF3E
:10160000E091560281E08E0F80935602F0E0ED5C8F
:10161000FD4F80818093BB009091560280915502CE
:1016200029C08091A0028093BB0085EC8093BC0010
:1016300064CF90919F0280919E02981758F5E09197
:101640009F0281E08E0F80939F02F0E0E258FD4FF1
:101650008081E9CFE0919F0281E08E0F80939F020D
:101660008091BB00F0E0E258FD4F808390919F0293
:1016700080919E029817C8F285E8D8CFE0919F022A
:1016800081E08E0F80939F028091BB00F0E0E258D2
:10169000FD4F808380917D0281115CCF81E080933A
:1016A0007C0284EA8093BC0010927B0226CF85ECFA
:1016B0008093BC0010927B0280917902803230F4DA
:1016C000E0917902F0E0E75AFD4F108260917902D3
:1016D00070E0E0915702F091580289E592E0099597
:1016E000109279020ACF10927A0234CF1F920F9291
:1016F0000FB60F9211242F933F938F939F93AF9325
:10170000BF938091E0019091E101A091E201B0913D
:10171000E3013091DF0123E0230F2D3758F50196C7
:10172000A11DB11D2093DF018093E0019093E101A1
:10173000A093E201B093E3018091E4019091E5016F
:10174000A091E601B091E7010196A11DB11D809322
:10175000E4019093E501A093E601B093E701BF9106
:10176000AF919F918F913F912F910F900FBE0F904E
:101770001F90189526E8230F0296A11DB11DD2CF08
:101780001F920F920FB60F9211242F933F934F93F6
:101790005F936F937F938F939F93AF93BF93EF93D9
:1017A000FF938DEA92E00E941F03FF91EF91BF919A
:1017B000AF919F918F917F916F915F914F913F91E9
:1017C0002F910F900FBE0F901F9018951F920F92A0
:1017D0000FB60F9211242F938F939F93EF93FF9344
:1017E000E091BD02F091BE028081E091C302F091D0
:1017F000C40282FD1BC090818091C6028F5F8F73EF
:101800002091C702821741F0E091C602F0E0E35553
:10181000FD4F958F8093C602FF91EF919F918F911D
:101820002F910F900FBE0F901F9018958081F4CFCD
:101830001F920F920FB60F9211242F933F934F9345
:101840005F936F937F938F939F93AF93BF93EF9328
:10185000FF93E091D601F091D7010995FF91EF91A7
:10186000BF91AF919F918F917F916F915F914F91B8
:101870003F912F910F900FBE0F901F9018951092CF
:10188000A4021092A30288EE93E0A0E0B0E080935F
:10189000A5029093A602A093A702B093A80226E205
:1018A00031E03093A2022093A1021092B002109274
:1018B000AF028093B1029093B202A093B302B093AF
:1018C000B40288E391E09093AE028093AD0285EC80
:1018D00090E09093BA028093B90284EC90E09093E8
:1018E000BC028093BB0280EC90E09093BE02809398
:1018F000BD0281EC90E09093C0028093BF0282EC25
:1019000090E09093C2028093C10286EC90E09093A5
:10191000C4028093C3021092C6021092C7021092B2
:10192000C8021092C90210926F0310926E038AE4EB
:1019300091E090936D0380936C031092750380E2A5
:101940008093700380E18093760382E08093770335
:101950001092780380934A0383E080934B038AE0DC
:1019600080934C0310924D0310924F0310924E033C
:10197000109251031092500384E08093520310920E
:1019800054031092530381E0809355031092570340
:1019900010925603809358038093590310925A0370
:1019A00010925B0310925D0310925C0310925F0330
:1019B00010925E0380E293E0909361038093600352
:1019C00080E991E090936303809362031092640333
:1019D00010926503109266031092670310926903D8
:1019E0001092680310926B0310926A0362E082E027
:1019F0000E940E0280914B0387FD03C062E00E94AB
:101A00000E0280914C0387FD03C062E00E940E022B
:101A100080914A030E94780120914D0328171906EE
:101A200031F483E090E090935103809350038091D0
:101A30004B030E94780120914D032817190651F499
:101A4000809150039091510321E08227909351039C
:101A5000809350030895789484B5826084BD84B5E2
:101A6000816084BD85B5826085BD85B5816085BD99
:101A700080916E00816080936E0010928100809151
:101A800081008260809381008091810081608093D9
:101A90008100809180008160809380008091B100FE
:101AA00084608093B1008091B00081608093B00029
:101AB00080917A00846080937A0080917A008260BD
:101AC00080937A0080917A00816080937A0080917F
:101AD0007A00806880937A001092C100E091BD0284
:101AE000F091BE0282E08083E091B902F091BA02E7
:101AF0001082E091BB02F091BC028FEC80831092C7
:101B0000C502E091C102F091C20286E08083E091BB
:101B1000BF02F091C002808180618083E091BF02AA
:101B2000F091C002808188608083E091BF02F091D3
:101B3000C002808180688083E091BF02F091C00282
:101B400080818F7D808367E671E08DEA92E00E945C
:101B500027096BE771E08DEA92E00E94270960E0B7
:101B600089E00E940E0260E08CE00E940E0261E0BB
:101B700087E00E940E0261E086E00E940E0261E0B2
:101B80008BE00E940E0210922A02109229021092FB
:101B90002C0210922B020E94CF0187EC90E09093D0
:101BA00054028093530288EC90E090935802809303
:101BB00057021092710380917703823018F098E0F9
:101BC000909371038093740362E370E080E090E08F
:101BD0000E946F02609178038CE693E00E94AE034E
:101BE00068EE73E080E090E00E946F0260E38CE6B4
:101BF00093E00E94AA08CBE4D6E4CE010197F1F766
:101C000060E38CE693E00E94AA082197F1F760E375
:101C10008CE693E00E94AA0883E592E00197F1F731
:101C200060E28CE693E00E94AA0860917103606212
:101C300040E08CE693E00E94C30884E08093720346
:101C400040E06CE08CE693E00E94C3080E940E091D
:101C500082E08093730340E066E08CE693E00E94AC
:101C6000C30840E062E08CE693E00E94C3088BE387
:101C70009FE10197F1F788E08093780360E08CE6BC
:101C800093E00E94AE0380E1809381001092800077
:101C900080E49FE1909387008093860081E18093A8
:101CA000810081E097E09093D7018093D60181E095
:101CB00080936F00109255031092540310925303B7
:101CC0008091B0008F778093B0008091B0008064E5
:101CD0008093B0008091B100877F8093B1008091A4
:101CE000B00082608093B0008091B0008E7F8093BE
:101CF000B0008091B1008E7F8093B1008091B100DF
:101D00008D7F8093B1008091B1008B7F8093B10073
:101D100080E0282E80E0382E03E010E094E0E92EE9
:101D2000F12C22E0C22ED12C30E9832E99249394F9
:101D300045E0A42EB12CC0910A01D0910B01C33013
:101D4000D10509F424C184F4C130D105E1F1229711
:101D500009F483C02114310471F30E940B0388231A
:101D600051F30E940000E7CFC430D10509F4C6C189
:101D7000259781F78091080190910901059791F0CD
:101D80000E940E0960E080E00E94DA0880EA91E09B
:101D90000E947C0961E080E00E94DA0881EB91E01A
:101DA0000E947C09B0920901A0920801B0920B0137
:101DB000A0920A010E941006019761F6D0920B01D1
:101DC000C0920A01C7CF0E940E0960E082E00E9423
:101DD000DA088EE791E00E947C0961E084E00E94CD
:101DE000DA088BE891E00E947C094AE061E070E04B
:101DF00080E090E00E94360941E06EE28CE693E0DC
:101E00000E94C3084AE061E070E080E090E00E9438
:101E100036094AE060E070E0CB010E94360960EDCF
:101E200077E080E090E00E946F020E940E09D0935C
:101E30000901C09308010E9410068130910509F440
:101E4000BDCF44F4892B09F085CFB0920B01A0924D
:101E50000A0180CF0497CCF37DCF8091DE018823E7
:101E600061F01092DE01809106019091070190933C
:101E70000501809304010E94150A6091DA017091B6
:101E8000DB018091DC019091DD0150E040E00E9497
:101E900099042B013C014092DA015092DB016092DF
:101EA000DC017092DD0120E030E040E85FE30E9459
:101EB0003E1387FD47C0C301B2010E945612CB01F9
:101EC0000E94410680910401909105012091D80162
:101ED0003091D9012817390731F09093D9018093B7
:101EE000D8010E94150AC091D801D091D901CE0124
:101EF0000E948805909305018093040120910A01B6
:101F000030910B0180910801909109012817390740
:101F100069F00E940E09CE010E94150A61E080E07E
:101F20000E94DA0880E991E00E947C090E94100674
:101F30008230910511F1039729F1D0920901C092E5
:101F4000080108CF8091B1008E7F8093B10080910D
:101F5000B1008D7F8093B1008091B1008B7F809321
:101F6000B10080E00E943A061092DA011092DB0183
:101F70001092DC011092DD01A5CF10930B010093AC
:101F80000A01DBCFF0920B01E0920A01D6CF0E944A
:101F90008C00039709F091C08091DE0181118DC002
:101FA00080910401909105019093070180930601AF
:101FB000909205018092040181E08093DE01C0913E
:101FC0000401D09105016091DA017091DB018091EB
:101FD000DC019091DD01AE010E9499042B013C01CE
:101FE0004092DA015092DB016092DC017092DD01D7
:101FF000BE010D2E000C880B990B0E948E129B01C6
:10200000AC01C301B2010E94DF11882339F0C30182
:10201000B2010E945612CB010E9441068091D80164
:102020009091D901C817D90739F0D093D901C0933D
:10203000D801CE010E94150AC091D801D091D901D2
:10204000CE010E94880590930501809304012091A0
:102050000A0130910B018091080190910901281724
:102060003907A1F00E940E09CE010E94150A61E015
:1020700080E00E94DA0885E991E00E947C0961E035
:1020800087E00E94A10181E00E943A0690E080E092
:102090000E949B090E9410068230910529F183302D
:1020A000910539F1019721F4D0920B01C0920A01F8
:1020B00010930901009308014DCE0E948C00892BDA
:1020C00009F07DCF8091DE01882309F478CF10924A
:1020D000DE018091060190910701909305018093A4
:1020E00004010E94150A6BCF10930B0100930A01A3
:1020F000DFCFF0920B01E0920A01DACF0E948C0050
:10210000039729F48091DE01882309F483C00E949B
:102110008C00892B09F48EC0C0910401D091050177
:102120006091DA017091DB018091DC019091DD0119
:10213000AE010E9499042B013C014092DA015092B9
:10214000DB016092DC017092DD01BE010D2E000CFE
:10215000880B990B0E948E129B01AC01C301B20146
:102160000E94DF11882339F0C301B2010E94561288
:10217000CB010E9441068091D8019091D901C817E6
:10218000D90739F0D093D901C093D801CE010E946C
:10219000150AC091D801D091D901CE010E948805BD
:1021A000909305018093040120910A0130910B0165
:1021B000809108019091090128173907A1F00E9428
:1021C0000E09CE010E94150A61E080E00E94DA0843
:1021D0008BE991E00E947C0960E087E00E94A10108
:1021E00081E00E943A0681E090E00E949B090E94F3
:1021F00010068230910581F18330910591F10197AC
:1022000021F4D0920B01C0920A01F0920901E092F0
:102210000801A0CD809104019091050190930701E0
:1022200080930601909205018092040181E08093E1
:10223000DE0172CF8091DE01882309F46DCF109208
:10224000DE01809106019091070190930501809332
:1022500004010E94150A60CF10930B0100930A013C
:10226000D4CFF0920B01E0920A01CFCFAA1BBB1B87
:1022700051E107C0AA1FBB1FA617B70710F0A61B86
:10228000B70B881F991F5A95A9F780959095BC01A7
:10229000CD010895A1E21A2EAA1BBB1BFD010DC0A2
:1022A000AA1FBB1FEE1FFF1FA217B307E407F50706
:1022B00020F0A21BB30BE40BF50B661F771F881FE2
:1022C000991F1A9469F760957095809590959B0178
:1022D000AC01BD01CF010895EE0FFF1F0590F491F1
:1022E000E02D09945058BB27AA270E948A110C940C
:1022F00004130E94F61238F00E94FD1220F039F407
:102300009F3F19F426F40C94F3120EF4E095E7FBCA
:102310000C94ED12E92F0E94151358F3BA176207B7
:1023200073078407950720F079F4A6F50C9437130A
:102330000EF4E0950B2EBA2FA02D0B01B9019001E0
:102340000C01CA01A0011124FF27591B99F0593F24
:1023500050F4503E68F11A16F040A22F232F342F6C
:102360004427585FF3CF469537952795A795F040BA
:102370005395C9F77EF41F16BA0B620B730B840BCF
:10238000BAF09150A1F0FF0FBB1F661F771F881F87
:10239000C2F70EC0BA0F621F731F841F48F48795DF
:1023A00077956795B795F7959E3F08F0B0CF9395D1
:1023B000880F08F09927EE0F9795879508950E944A
:1023C000C91208F481E008950E94F8110C940413D6
:1023D0000E94FD1258F00E94F61240F029F45F3F6F
:1023E00029F00C94ED1251110C9438130C94F31243
:1023F0000E94151368F39923B1F3552391F3951BAC
:10240000550BBB27AA2762177307840738F09F5F15
:102410005F4F220F331F441FAA1FA9F335D00E2E82
:102420003AF0E0E832D091505040E695001CCAF7EF
:102430002BD0FE2F29D0660F771F881FBB1F2617B2
:1024400037074807AB07B0E809F0BB0B802DBF0189
:10245000FF2793585F4F3AF09E3F510578F00C9458
:10246000ED120C9438135F3FE4F3983ED4F3869555
:1024700077956795B795F7959F5FC9F7880F911D79
:102480009695879597F90895E1E0660F771F881F65
:10249000BB1F621773078407BA0720F0621B730B18
:1024A000840BBA0BEE1F88F7E09508950E945D1229
:1024B0006894B1110C94381308950E941D1388F08C
:1024C0009F5798F0B92F9927B751B0F0E1F0660FF8
:1024D000771F881F991F1AF0BA95C9F714C0B13039
:1024E00091F00E943713B1E008950C943713672FD1
:1024F000782F8827B85F39F0B93FCCF38695779568
:102500006795B395D9F73EF4909580957095619550
:102510007F4F8F4F9F4F0895E89409C097FB3EF47B
:1025200090958095709561957F4F8F4F9F4F992320
:10253000A9F0F92F96E9BB279395F695879577959E
:102540006795B795F111F8CFFAF4BB0F11F460FF5E
:102550001BC06F5F7F4F8F4F9F4F16C0882311F0B6
:1025600096E911C0772321F09EE8872F762F05C0CA
:10257000662371F096E8862F70E060E02AF09A9565
:10258000660F771F881FDAF7880F9695879597F95A
:102590000895990F0008550FAA0BE0E8FEEF1616F4
:1025A0001706E807F907C0F012161306E407F50747
:1025B00098F0621B730B840B950B39F40A2661F0BB
:1025C000232B242B252B21F408950A2609F4A1405E
:1025D000A6958FEF811D811D089597F99F6780E86B
:1025E00070E060E008959FEF80EC089500240A9465
:1025F0001616170618060906089500240A941216DE
:102600001306140605060895092E0394000C11F410
:10261000882352F0BB0F40F4BF2B11F460FF04C0BD
:102620006F5F7F4F8F4F9F4F089557FD9058440F16
:10263000551F59F05F3F71F04795880F97FB991F21
:1026400061F09F3F79F087950895121613061406DE
:10265000551FF2CF4695F1DF08C01616170618066B
:10266000991FF1CF86957105610508940895E89446
:10267000BB2766277727CB0197F908950E94C912D7
:1026800008F48FEF08950E9456130C9404130E94CF
:10269000F61238F00E94FD1220F0952311F00C94F0
:1026A000ED120C94F31211240C9438130E9415139C
:1026B00070F3959FC1F3950F50E0551F629FF00195
:1026C000729FBB27F00DB11D639FAA27F00DB11DAE
:1026D000AA1F649F6627B00DA11D661F829F222737
:1026E000B00DA11D621F739FB00DA11D621F839FBE
:1026F000A00D611D221F749F3327A00D611D231F94
:10270000849F600D211D822F762F6A2F11249F57E1
:1027100050409AF0F1F088234AF0EE0FFF1FBB1FE4
:10272000661F771F881F91505040A9F79E3F5105A3
:1027300080F00C94ED120C9438135F3FE4F3983E54
:10274000D4F3869577956795B795F795E7959F5F4D
:10275000C1F7FE2B880F911D9695879597F90895DF
:04276000F894FFCF1B
:10276400CDCC4C3D0500050001000100010008002E
:10277400200040008000000100040000400014001C
:102784005400000000002001F3009604C900EC008E
:10279400D900CA00000000004103A102CE028E034A
:1027A400FF02DD02F102000000002109A1029604EB
:1027B40095042D003E003C0046656564723A200095
:1027C4006D6D2F6D696E00426173696320456E63A0
:1027D4006F64657220546573743A000D0A00417287
:1027E4005F506F77657246656564005665723A009E
:1027F40053544F50005249474854004C45465400E6
:102804004552523A204D4F56452053574954434858
:1028140000544F2053544F5020504F534954494F64
:042824004E3A000028
:00000001FF
