:100000000C9462000C948A000C948A000C948A0070
:100010000C948A000C948A000C948A000C948A0038
:100020000C948A000C948A000C948A000C948A0028
:100030000C948A000C945A0D0C948A000C948A003B
:100040000C94B80C0C948A000C94280D0C94020D9E
:100050000C948A000C948A000C948A000C948A00F8
:100060000C94990B0C948A000000000024002700D7
:100070002A0000000000250028002B0000000000DE
:1000800023002600290004040404040404040202DA
:100090000202020203030303030301020408102007
:1000A0004080010204081020010204081020000012
:1000B0000008000201000003040700000000000027
:1000C0000000810D11241FBECFEFD8E0DEBFCDBFF1
:1000D00012E0A0E0B1E0E4E5F0E302C005900D928B
:1000E000AA35B107D9F724E0AAE5B2E001C01D9214
:1000F000A431B207E1F710E0C2E6D0E004C02197D6
:10010000FE010E94DF15C136D107C9F70E946D0EAE
:100110000C9428180C940000F8948091F1039091AD
:10012000F2032091F1033091F2032330310531F0D5
:10013000009721F01092F2031092F1037894089541
:10014000F8948091E9039091EA032091ED03223025
:1001500031F59C01217033273093EA032093E903A2
:100160002091ED03243021F49595879595958795F9
:100170002091ED03223011F4959587952091F0039D
:100180002223D1F02091EE033091EF03232F332768
:1001900097FF15C0C9018095909578940895209196
:1001A000ED03243021F49C0123703327D5CF109226
:1001B000EA031092E903D4CF30E020E0E9CF0097C2
:1001C00061F3C9010196E9CF2091F002260F332790
:1001D000331F21323105ECF420911603FC0190E02D
:1001E00080E0243069F082E00895A091F00221912E
:1001F000AC0142535D4FA40FB52FB11D2C93019656
:10020000861798F38091F002680F6093F00280E007
:10021000089581E00895089508950895E091C50234
:100220008091C402E81730F4F0E0EC55FD4F808176
:1002300090E008958FEF9FEF08959091C50280910F
:10024000C4022FEF3FEF981748F4E92FF0E0EC5588
:10025000FD4F208130E09F5F9093C502C901089552
:100260008091C4029091C502891B990B0895CF9289
:10027000DF92EF92FF920F931F93CF93DF937C0156
:10028000CB018A012091A302222389F0EB016B01AB
:10029000C40ED51ECC15DD0569F06991D701ED912D
:1002A000FC910190F081E02DC7010995F3CF642FF7
:1002B0000E94E400C801DF91CF911F910F91FF9040
:1002C000EF90DF90CF900895CF93DF931F92CDB73B
:1002D000DEB769832091A3022223F9F02091C602A0
:1002E000203258F021E030E0FC013383228390E09B
:1002F00080E00F90DF91CF9108958091C702E82FA1
:10030000F0E0ED57FD4F998190838F5F8093C70296
:100310008093C60281E090E0ECCF61E0CE010196CF
:100320000E94E400F7CF833081F028F4813099F007
:100330008230A9F008958730A9F08830C9F0843060
:10034000B1F4809180008F7D03C0809180008F7711
:1003500080938000089584B58F7784BD089584B517
:100360008F7DFBCF8091B0008F778093B000089590
:100370008091B0008F7DF9CFCF93DF93282F30E0AD
:10038000F901E255FF4F8491F901E656FF4FD491F0
:10039000F901EA57FF4FC491CC23A1F081110E94CB
:1003A0009301EC2FF0E0EE0FFF1FE458FF4FA591F3
:1003B000B491EC91ED2381E090E009F480E0DF91CD
:1003C000CF91089580E090E0FACF1F93CF93DF9311
:1003D000282F30E0F901E255FF4F8491F901E656EC
:1003E000FF4FD491F901EA57FF4FC491CC23A9F0F4
:1003F000162F81110E949301EC2FF0E0EE0FFF1FEA
:10040000EE58FF4FA591B4918FB7F894EC9111116C
:1004100008C0D095DE23DC938FBFDF91CF911F9171
:100420000895DE2BF8CF1092160381E08093180315
:100430001092170361E082E10E94E50161E083E12F
:100440000E94E501E9EBF0E080818E7F808380816E
:100450008D7F808388E48093B80085E48093BC001E
:100460000895CF93DF9391E09093CD028823B9F064
:10047000C091B800D091BA008091BC008A7B809373
:10048000BC0060E082E10E94E50160E083E10E943F
:10049000E5010E941302D093BA00C093B800DF9127
:1004A000CF910895CF93DF9390E0FC01E656FF4F84
:1004B00024918A579F4FFC0184918823C9F090E0D2
:1004C000880F991FFC01E859FF4FA591B491FC01D9
:1004D000EE58FF4FC591D49161110DC09FB7F894AC
:1004E0008C91209582238C938881282328839FBF19
:1004F000DF91CF910895623051F49FB7F8943C9109
:10050000822F809583238C93E8812E2BEFCF8FB79A
:10051000F894EC912E2B2C938FBFEACF3FB7F89431
:1005200080917F0290918002A0918102B09182021D
:1005300026B5A89B05C02F3F19F00196A11DB11D3E
:100540003FBFBA2FA92F982F8827BC01CD01620F7A
:10055000711D811D911D42E0660F771F881F991F35
:100560004A95D1F708958F929F92AF92BF92CF9202
:10057000DF92EF92FF924B015C010E948E026B01B1
:100580007C010E948E026C197D098E099F09683ECC
:10059000734081059105A8F321E0821A9108A10812
:1005A000B10888EEC80E83E0D81EE11CF11C81144E
:1005B0009104A104B10429F7FF90EF90DF90CF9050
:1005C000BF90AF909F908F900895AF92BF92CF92BF
:1005D000DF92EF92FF920F931F93CF93DF936C0103
:1005E0007B018B01040F151FEB015E01AE18BF08E4
:1005F000C017D10759F06991D601ED91FC91019096
:10060000F081E02DC6010995892B79F7C501DF91AD
:10061000CF911F910F91FF90EF90DF90CF90BF90FF
:10062000AF900895FC01538D448D252F30E0842F29
:1006300090E0821B930B541710F0CF96089501970A
:100640000895FC01918D828D981761F0A28DAE0FF7
:10065000BF2FB11D5D968C91928D9F5F9F73928F7E
:1006600090E008958FEF9FEF0895FC01918D828DAA
:10067000981731F0828DE80FF11D858D90E0089577
:100680008FEF9FEF0895FC01918D228D892F90E0CF
:10069000805C9F4F821B91098F739927089588E48E
:1006A00093E00E94430321E0892B09F420E0822F8C
:1006B000089580E090E0892B29F00E944F0381117A
:1006C0000C9400000895FC01A48DA80FB92FB11D52
:1006D000A35ABF4F2C91848D90E001968F73992778
:1006E000848FA689B7892C93A089B1898C91837056
:1006F00080648C93938D848D981306C00288F3894F
:10070000E02D80818F7D80830895EF92FF920F937B
:100710001F93CF93DF93EC0181E0888F9B8D8C8DAD
:1007200098131AC0E889F989808185FF15C09FB7A1
:10073000F894EE89FF896083E889F9898081837064
:10074000806480839FBF81E090E0DF91CF911F9113
:100750000F91FF90EF900895F62E0B8D10E00F5F34
:100760001F4F0F731127E02E8C8D8E110CC00FB60A
:1007700007FCFACFE889F989808185FFF5CFCE01A2
:100780000E946303F1CFEB8DEC0FFD2FF11DE35AB7
:10079000FF4FF0829FB7F8940B8FEA89FB89808125
:1007A0008062CFCFCF93DF93EC01888D8823B9F09F
:1007B000AA89BB89E889F9898C9185FD03C080816C
:1007C00086FD0DC00FB607FCF7CF8C9185FFF2CFE9
:1007D000808185FFEDCFCE010E946303E9CFDF91D9
:1007E000CF910895CF92DF92EF92FF920F931F93D4
:1007F000CF93DF93FC01C48121E02093A302C09337
:1008000067021092C7021092C6028485682B8CE39F
:1008100093E00E946401D091C602D13208F092C0E8
:100820000E948E026B017C0180911603811165C0CC
:1008300082E08093160381E0809318038FEF80930A
:10084000150310923A03D0933903A3E8B2E0E9E12B
:10085000F3E080E0D81385C010923B0380913B0306
:10086000CC0FC82BC0933B0380911703813009F054
:100870007CC0109217030E948E026B017C01809154
:100880003B038093BB008091C9029091CA02A09162
:10089000CB02B091CC02892B8A2B8B2B99F00E9432
:1008A0008E020091C9021091CA022091CB023091B0
:1008B000CC026C197D098E099F09061717072807B6
:1008C0003907E0F18091BC0083FDD9CF85EC80939E
:1008D000BC000E948E026B017C0180911603823065
:1008E00009F445C0809115038F3F61F18091150394
:1008F000803241F18091150325C08091C902909109
:10090000CA02A091CB02B091CC02892B8A2B8B2BEF
:1009100009F48ACF0E948E020091C9021091CA0286
:100920002091CB023091CC026C197D098E099F0970
:10093000061717072807390708F076CF8091C802F5
:100940000E9431021092C7021092C6021092A302B6
:10095000DF91CF911F910F91FF90EF90DF90CF909B
:1009600008959D9191938F5F75CF85EEB0CF809163
:10097000C9029091CA02A091CB02B091CC02892BFE
:100980008A2B8B2B09F4A9CF0E948E020091C902F9
:100990001091CA022091CB023091CC026C197D09D2
:1009A0008E099F09061717072807390708F095CF02
:1009B000C5CF089590E080E008950E94A0002091A6
:1009C000760230917702280F391F309377022093F7
:1009D000760280917802909179022817390749F0C0
:1009E000A901481B590BCA01309379022093780260
:1009F000089590E080E008954F925F926F927F9209
:100A00008F929F92AF92BF92CF92DF92EF92FF921E
:100A1000CF93DF936B017C01EA012FB7F8948091AB
:100A20007B0290917C02A0917D02B0917E022FBF4B
:100A30004091630250916402609165027091660278
:100A40004C5E5F4F6F4F7F4F481759076A077B0710
:100A500008F071C0209162022111CAC08093630224
:100A600090936402A0936502B093660281E0809344
:100A70006202C701B6010E94C9166C177D070CF00F
:100A80006BC0BE01DD0F880B990B0E940117A701F7
:100A900096010E94E5152B013C01609114017091B3
:100AA0001501072E000C880B990B0E9401174B01B2
:100AB0005C0120E030E048E452E4C301B2010E944E
:100AC0005216181684F02AE037ED43E25CE3C301C6
:100AD000B2010E94B6179B01AC01C501B4010E948E
:100AE000B6174B015C0140900001509001016090ED
:100AF000020170900301A5019401C301B2010E949B
:100B0000B6179B01AC01C701B6010E94E6156B0147
:100B10007C01109262022AE037ED43EA5CE3C301F4
:100B2000B2010E94E6156093000170930101809369
:100B3000020190930301C701B601DF91CF91FF90AD
:100B4000EF90DF90CF90BF90AF909F908F907F906D
:100B50006F905F904F900895C617D70764F7BE0156
:100B6000DD0F880B990B0E9401179B01AC01C70197
:100B7000B6010E94E5152B013C01609114017091B2
:100B80001501072E000C880B990B0E9401174B01D1
:100B90005C0120E030E048E452E4C301B2010E946D
:100BA0005216181684F02AE037ED43E25CE3C301E5
:100BB000B2010E94B6179B01AC01C501B4010E94AD
:100BC000B6174B015C01409000015090010160900C
:100BD000020170900301A5019401C301B2010E94BA
:100BE000B6179B01AC01C701B6010E94E5158FCF76
:100BF0001092000110920101109202011092030163
:100C00008093630290936402A0936502B09366029E
:100C10001092620290CFCF93DF93EC010E94A0006C
:100C20002091760230917702820F931F9093770282
:100C3000809376022091780230917902821793078F
:100C400001F1AC01421B530B9A0140915A0244231B
:100C500039F04AE0B901469F9001479F300D1124B9
:100C60009093790280937802C20FD31FC53F71E041
:100C7000D70714F0C4EFD1E0C530D10514F4C5E0B6
:100C8000D0E00E948C00059731F480915A0291E0E7
:100C9000892780935A02CE01DF91CF91089589E090
:100CA0000E94BC01892BA9F489E00E94BC01892B18
:100CB000C1F089E00E94BC010097D1F08CE00E9455
:100CC000BC0131E020E0892B09F430E0832F922F22
:100CD00008958CE00E94BC01892B31F782E090E0FE
:100CE00008958CE00E94BC01892B19F383E090E009
:100CF000089560E0813009F061E086E00C94E50140
:100D00008F929F92AF92BF92EF92FF920F931F9399
:100D1000CF93DF93CDB7DEB72E970FB6F894DEBF33
:100D20000FBECDBF8C018EE0EAE1F1E0DE0111964D
:100D300001900D928A95E1F760910E0170910F017B
:100D4000072E000C880B990B0E9401174B015C01C8
:100D5000B801110F880B990B0E9401179B01AC0180
:100D6000C501B4010E94B6174B015C0120E030E0E0
:100D700040E752E4609110017091110180911201DD
:100D8000909113010E94B6179B01AC01C501B401FB
:100D90000E9457164B015C01CE0101967C0110E0C8
:100DA00000E0F701619171917F01660F771F072EB7
:100DB000000C880B990B0E940117A50194010E9459
:100DC000B6179B01AC0160E074E284E79BE40E94EB
:100DD000571620E030E040E85FE30E94E5150E94EE
:100DE000C916AB01BC01C80101964F3F5105610511
:100DF000710509F06CF50330110509F443C054F591
:100E00000130110591F102301105C1F18091B1005D
:100E100081608093B1008091B1008D7F8093B1009B
:100E20008091B1008B7F8093B1004093B3002E96E8
:100E30000FB6F894DEBF0FBECDBFDF91CF911F91EB
:100E40000F91FF90EF90BF90AF909F908F9008957B
:100E50008C01A7CF0530110539F114F106301105C9
:100E6000A9F68091B100816022C08091B1008E7F8F
:100E70008093B1008091B1008260D0CF8091B100A9
:100E80008160F6CF8091B1008E7F8093B100809118
:100E9000B1008D7F8093B1008091B1008460C3CF99
:100EA0008091B1008160F1CF8091B1008E7F8093FD
:100EB000B1008091B1008260EDCFCF92DF92EF92CE
:100EC000FF920F931F93CF93DF938091E50387FDEC
:100ED00064C09091E60397FD60C09091F003992360
:100EE000A1F02091EE033091EF03225031093093AD
:100EF000EF032093EE032091EE033091EF0337FFD1
:100F000004C01092EF031092EE030E94BC012091E6
:100F1000E803C0E02817190609F4C3E08091E6034E
:100F20000E94BC012091E8032817190611F481E002
:100F3000C8278091EB039091EC038C1B80FFA3C02A
:100F40000C2E000CDD0BD093EC03C093EB0320912F
:100F5000E9033091EA038270082E000C990B019787
:100F6000820F931F9093EA038093E90381E09091AD
:100F7000F003992391F0882381F08091EE03909102
:100F8000EF03883E9B4048F48091EE039091EF037D
:100F900049969093EF038093EE038FB7F8944091B6
:100FA0007B0250917C0260917D0270917E028FBF26
:100FB0008091FF0390910004A0910104B09102047C
:100FC000481759076A077B0740F41092FF031092F5
:100FD000000410920104109202048091E703181695
:100FE0003CF08111AAC09091F503992309F4A5C0A2
:100FF0000091FF031091000420910104309102043C
:101000006A017B01C01AD10AE20AF30A970186013C
:101010000A3011052105310508F48FC04093FF0304
:101020005093000460930104709302042091F6032E
:10103000982F222351F18E3008F09E5097709064C3
:1010400090937C0080917A00806480937A008091F4
:101050007A0086FDFCCF90917800809179008927F5
:101060009827892740910304509104048417950719
:101070008CF021E04091050450910604481759076F
:101080004CF020E007C080E072CF0E94BC0121E05C
:10109000892BB9F33091E80332131EC0E091F703B6
:1010A000F091F8033196F093F803E093F703809101
:1010B000FB039091FC036AE070E00E94A9156E1793
:1010C0007F0750F48091F403882331F083E090E0AF
:1010D0009093F2038093F10381E0382732131AC012
:1010E0008091F7039091F803029780F08091F103CB
:1010F0009091F203039751F584E090E09093F2030E
:101100008093F1031092FA031092F9031092F803FE
:101110001092F7038091F9039091FA03009769F018
:1011200001979093FA038093F903892B31F485E0BA
:1011300090E09093F2038093F103DF91CF911F91A0
:101140000F91FF90EF90DF90CF9008952091F903D9
:101150003091FA032230310570F08091FD039091B7
:10116000FE036AE070E00E94A9152617370770F6A3
:1011700086E090E0C3CF8091F30361E070E08823C4
:1011800041F08091FD039091FE036AE070E00E94BF
:10119000A9157093FA036093F903B8CF0F931F93C7
:1011A000CF938C01C62F0E94F2036C2F6460C8019C
:1011B0000E94F2036C2F6B7FC8010E94F20383EC44
:1011C00090E00197F1F7CF911F910F9108950F9340
:1011D0001F93CF93DF938C01D62FC42F607F642B96
:1011E0000E94CE0880E1D89FB00111246C2BC80169
:1011F000DF91CF911F910F910C94CE08CF93DF9385
:10120000CDB7DEB728970FB6F894DEBF0FBECDBFBF
:1012100098E0E8E2F1E0DE01119601900D929A95D6
:10122000E1F790910F04961710F46FEF690F262FD6
:1012300030E0220F331F41E050E04C0F5D1F240FC0
:10124000351FF9016081680F606840E087E094E035
:1012500028960FB6F894DEBF0FBECDBFDF91CF91B9
:101260000C94E70840E061E087E094E00E94E70822
:101270008BE39FE10197F1F780911004882321F01F
:1012800060E080E00C94FE08089541E00E94E708C9
:1012900081E090E0089585ED8093BC008091C902C3
:1012A0009091CA02A091CB02B091CC020796A11DE9
:1012B000B11D23E0B695A795979587952A95D1F707
:1012C0002091BC0024FD03C01092160308954091A4
:1012D000C9025091CA026091CB027091CC02452B99
:1012E000462B472B69F30097A105B10541F025E393
:1012F0002A95F1F700000197A109B109E1CF80918A
:10130000C8020C943102FB0101900020E9F73197EB
:10131000AF01461B570BDC01ED91FC910280F3817C
:10132000E02D09948F929F92AF92BF920F931F93DB
:10133000CF93DF93CDB7DEB7A1970FB6F894DEBF9A
:101340000FBECDBF19A2423008F44AE08E010F5DF6
:101350001F4F842E912CB12CA12CA50194010E9429
:10136000BD15E62FB901CA01EA3004F5E05DD801E8
:10137000EE938D01232B242B252B79F790E080E031
:10138000109729F0BD0187E094E00E948309A1969F
:101390000FB6F894DEBF0FBECDBFDF91CF911F9186
:1013A0000F91BF90AF909F908F900895E95CDFCF31
:1013B000CF92DF92EF92FF926C01990FEE08FF0837
:1013C000F7FE16C041E06DE287E094E00E94E70876
:1013D00066277727CB016C197D098E099F094AE0A2
:1013E0000E9492090196FF90EF90DF90CF900895B0
:1013F0004AE0C701B601FF90EF90DF90CF900C94C8
:101400009209BC0187E094E00C948309EF92FF926B
:101410001F93CF93DF93182FEB017A01EC16FD0693
:1014200054F0612F8C2F0E94FE088CE691E00E9400
:10143000010A2196F3CFDF91CF911F91FF90EF909A
:1014400008950F931F93209161022817190651F0F8
:1014500021E0009709F420E02093610210926002DD
:1014600010925F024FB7F89400917B0210917C02BA
:1014700020917D0230917E024FBF40915B025091DE
:101480005C0260915D0270915E0240575E4F6F4F4B
:101490007F4F0417150726073707A8F100935B0253
:1014A00010935C0220935D0230935E0220915F02F4
:1014B00030916002019751F161E088E0820F2430A1
:1014C000310554F12430310591F461E08CE00E9443
:1014D000FE0882E691E00E94010A80915F029091ED
:1014E000600201969093600280935F020CC040E11D
:1014F00050E068E070E081E090E00E94060A1092FF
:10150000600210925F021F910F91089524303105FF
:1015100044F461E08CE0821B0E94FE0880E691E0CA
:10152000DACF2430310519F761E088E00E94FE0827
:1015300084E691E0D0CFCF93DF93EC014FE050E011
:101540006EE070E08B3091053CF08536910544F4F7
:101550004FE050E06FE070E090E080E00E94060A0B
:1015600060E080E00E94FE0886E691E00E94010AA9
:10157000CE010E94D80981E092E0DF91CF910C94D6
:10158000010A4F925F926F927F928F929F92AF92D9
:10159000BF92CF92DF92EF92FF92CF93DF936B01D6
:1015A0007C01AC019B010E9423186EE671E0811161
:1015B00026C046015701E894B7F82FEF3FEF4FE7F9
:1015C0005FE7C501B4010E94231881110CC02FEF01
:1015D0003FEF4FE75FE7C501B4010E94521662E793
:1015E00071E0181664F02FEF3FEF4FE75FE4C7019B
:1015F000B6010E94B1171816A4F466E771E087E0FF
:1016000094E0DF91CF91FF90EF90DF90CF90BF906B
:10161000AF909F908F907F906F905F904F900C94C1
:1016200083092FEF3FEF4FE75FECC701B6010E9440
:10163000521687FDE2CF20E030E0A901C701B601D4
:101640000E945216D0E0C0E087FF0CC041E06DE27E
:1016500087E094E00E94E708F7FAF094F7F8F09436
:10166000C1E0D0E02AE037ED43EA5BE3C701B60111
:101670000E94E6154B015C010E94D0166B017C01B3
:101680000E94FF169B01AC01C501B4010E94E51543
:101690004B015C014AE0C701B6010E9492097C013E
:1016A000EC0EFD1E41E06EE287E094E00E94E70848
:1016B0008FEFE81AF80A20E030E040E251E4C5017B
:1016C000B4010E94B6172B013C010E94D0164B01B9
:1016D000B12CA12C4AE0C501B4010E949209E80E88
:1016E000F91EC501B4010E94FF169B01AC01C301A4
:1016F000B2010E94E51520E030E040E251E40E9492
:10170000B6170E94D01690E080E04AE00E9492094D
:101710008E0D9F1DDF91CF91FF90EF90DF90CF90C6
:10172000BF90AF909F908F907F906F905F904F9001
:1017300008951F920F920FB60F9211242F933F938B
:101740004F935F936F937F938F939F93AF93BF93C9
:10175000EF93FF938091B900887F803609F44AC0E7
:10176000F0F5883209F4A7C018F5803109F49BC060
:10177000B8F4882309F4F9C0883009F494C0FF91C3
:10178000EF91BF91AF919F918F917F916F915F91F9
:101790004F913F912F910F900FBE0F901F90189572
:1017A000883109F488C0803251F78093150314C042
:1017B000803409F49DC040F48033B9F38833F9F6DE
:1017C0008093150385ECB0C0803509F485C0883559
:1017D00009F496C0883499F60E944B09D0CF883915
:1017E00009F48CC038F5883729F050F4883611F0A8
:1017F000803729F683E0809316031092140357C0B4
:10180000883809F47BC0803919F0803809F0B7CFE7
:1018100080911403803208F071C0E091140381E0DC
:101820008E0F809314038091BB00F0E0EC50FD4FCD
:1018300080833DC0803B39F0E0F4803A09F479C000
:10184000883A09F09CCF84E0809316031092F1024D
:101850001092F002E091EE02F091EF020995809172
:10186000F00281110FC081E08093F0021092CE024D
:1018700009C0803C09F4A6CF883C09F4A3CF883B7B
:1018800009F07DCFE091F10281E08E0F8093F102AB
:10189000F0E0E253FD4F80818093BB009091F10214
:1018A0008091F00229C080913B038093BB0085ECBE
:1018B0008093BC0064CF90913A03809139039817CC
:1018C00058F5E0913A0381E08E0F80933A03F0E0FF
:1018D000E75EFC4F8081E9CFE0913A0381E08E0F13
:1018E00080933A038091BB00F0E0E75EFC4F808379
:1018F00090913A03809139039817C8F285E8D8CFC0
:10190000E0913A0381E08E0F80933A038091BB000F
:10191000F0E0E75EFC4F80838091180381115CCF7B
:1019200081E08093170384EA8093BC001092160331
:1019300026CF85EC8093BC0010921603809114038F
:10194000803230F4E0911403F0E0EC50FD4F10824F
:101950006091140370E0E091F202F091F30284EFE1
:1019600092E00995109214030ACF1092150334CF18
:101970001F920F920FB60F9211242F933F938F93C4
:101980009F93AF93BF9380917B0290917C02A09133
:101990007D02B0917E0230917A0223E0230F2D3731
:1019A00058F50196A11DB11D20937A0280937B0208
:1019B00090937C02A0937D02B0937E0280917F027F
:1019C00090918002A0918102B09182020196A11DA6
:1019D000B11D80937F0290938002A0938102B09307
:1019E0008202BF91AF919F918F913F912F910F9064
:1019F0000FBE0F901F90189526E8230F0296A11D89
:101A0000B11DD2CF1F920F920FB60F9211242F93B8
:101A10003F934F935F936F937F938F939F93AF9376
:101A2000BF93EF93FF9388E493E00E946303FF91D9
:101A3000EF91BF91AF919F918F917F916F915F9146
:101A40004F913F912F910F900FBE0F901F901895BF
:101A50001F920F920FB60F9211242F938F939F9383
:101A6000EF93FF93E0915803F09159038081E09147
:101A70005E03F0915F0382FD1BC090818091610342
:101A80008F5F8F7320916203821741F0E0916103B1
:101A9000F0E0E85BFC4F958F80936103FF91EF913D
:101AA0009F918F912F910F900FBE0F901F901895BF
:101AB0008081F4CF1F920F920FB60F9211242F93B3
:101AC0003F934F935F936F937F938F939F93AF93C6
:101AD000BF93EF93FF93E0916802F091690209953B
:101AE000FF91EF91BF91AF919F918F917F916F91F6
:101AF0005F914F913F912F910F900FBE0F901F90CC
:101B0000189510923F0310923E0388EE93E0A0E0F8
:101B1000B0E08093400390934103A0934203B093BD
:101B2000430324E331E030933D0320933C031092C0
:101B30004B0310924A0380934C0390934D03A09360
:101B40004E03B0934F0386E491E090934903809352
:101B5000480385EC90E0909355038093540384EC04
:101B600090E0909357038093560380EC90E090931D
:101B700059038093580381EC90E090935B0380932A
:101B80005A0382EC90E090935D0380935C0386ECB3
:101B900090E090935F0380935E0310926103109234
:101BA0006203109263031092640310920A0410926D
:101BB000090488E591E0909308048093070410924B
:101BC000100480E280930B0480E18093110482E092
:101BD00080931204109213048093E50383E08093B2
:101BE000E6038AE08093E7031092E8031092EA0389
:101BF0001092E9031092EC031092EB0384E08093BF
:101C0000ED031092EF031092EE0381E08093F00356
:101C10001092F2031092F1038093F3038093F40384
:101C20001092F5031092F6031092F8031092F70346
:101C30001092FA031092F90380E293E09093FC0370
:101C40008093FB0380E991E09093FE038093FD0372
:101C50001092FF03109200041092010410920204EB
:101C600010920404109203041092060410920504CA
:101C700062E082E00E9452028091E60387FD03C089
:101C800062E00E9452028091E70387FD03C062E098
:101C90000E9452028091E5030E94BC012091E8035A
:101CA0002817190631F483E090E09093EC038093B9
:101CB000EB038091E6030E94BC012091E803281702
:101CC000190651F48091EB039091EC0321E08227F7
:101CD0009093EC038093EB030895CF93DF93CDB7FC
:101CE000DEB76C970FB6F894DEBF0FBECDBF789409
:101CF00084B5826084BD84B5816084BD85B5826011
:101D000085BD85B5816085BD80916E0081608093C1
:101D10006E0010928100809181008260809381002A
:101D2000809181008160809381008091800081603A
:101D3000809380008091B10084608093B100809195
:101D4000B00081608093B00080917A0084608093BD
:101D50007A0080917A00826080937A0080917A0084
:101D6000816080937A0080917A00806880937A0005
:101D70001092C100E0915803F091590382E08083F2
:101D8000E0915403F09155031082E0915603F091D5
:101D900057038FEC808310926003E0915C03F09115
:101DA0005D0386E08083E0915A03F0915B038081BC
:101DB00080618083E0915A03F0915B0380818860A9
:101DC0008083E0915A03F0915B0380818068808377
:101DD000E0915A03F0915B0380818F7D80836AE7F5
:101DE00071E088E493E00E9483096EE871E088E482
:101DF00093E00E94830960E089E00E94520260E063
:101E00008CE00E94520261E087E00E94520261E091
:101E100086E00E94520261E08BE00E945202109222
:101E2000C5021092C4021092C7021092C6020E940C
:101E300013028BE091E09093EF028093EE028CE02E
:101E400091E09093F3028093F20210920C0480913F
:101E50001204823018F098E090930C0480930F04E1
:101E600062E370E080E090E00E94B30260911304AE
:101E700087E094E00E94F20368EE73E080E090E077
:101E80000E94B30260E387E094E00E94CE080BE476
:101E900016E4C8010197F1F760E387E094E00E943F
:101EA000CE08C8010197F1F760E387E094E00E9453
:101EB000CE0883E592E00197F1F760E287E094E0D5
:101EC0000E94CE0860910C04606240E087E094E0DC
:101ED0000E94E70884E080930D0440E06CE087E016
:101EE00094E00E94E7080E94320982E080930E0489
:101EF00040E066E087E094E00E94E70840E062E0AE
:101F000087E094E00E94E7088BE39FE10197F1F7F7
:101F100088E08093130460E087E094E00E94F2037D
:101F200080E1809381001092800080E49FE1909393
:101F300087008093860081E1809381008DE597E0A2
:101F4000909369028093680281E080936F00109201
:101F5000F0031092EF031092EE038091B0008F77A0
:101F60008093B0008091B00080648093B000809135
:101F7000B100877F8093B1008091B0008260809330
:101F8000B0008091B0008E7F8093B0008091B1004E
:101F90008E7F8093B1008091B1008D7F8093B100DE
:101FA0008091B1008B7F8093B10043E0C42ED12C8F
:101FB00054E0A52EB12C02E010E065E0662E712CF5
:101FC00080911801909119018330910509F432C173
:101FD0008CF48130910549F1029709F491C0E0E059
:101FE000F0E0EF2B69F30E944F03882349F30E942E
:101FF0000000E6CF8530910509F493C20CF4D5C1F9
:10200000069769F7E0916D02F0916E02E830F105F4
:1020100030F7E35FFF4E0C94DF15BB122013A213C1
:102020000E148914F61473158A15CE0101964C010D
:10203000F12CE12C582E492CC7010E949315F40174
:1020400081934F01FFEFEF1AFF0A2EE0E216F10431
:1020500099F78EE0E52DF42DAAE0B1E001900D9204
:102060008A95E1F780E00E9479060E94320960E0DB
:1020700082E00E94FE0881E991E00E94010A61E08D
:1020800084E00E94FE088EE991E00E94010A6AE95C
:1020900079E989E99FE30E94C10A60ED77E080E079
:1020A00090E00E94B3020E94320981E090E0909398
:1020B0000901809308010E944F068130910561F06B
:1020C00044F4892B09F08BCF7092190160921801AA
:1020D00086CF0497CCF383CF0E948C00039709F03E
:1020E00045C286E090E09093190180931801109208
:1020F00079021092780210927702109276026FCFD6
:1021000080917502882361F010927502809106011A
:102110009091070190930501809304010E949B0A0E
:1021200060917102709172028091730290917402B9
:1021300050E040E00E94FC041B012C01209271023F
:1021400030927202409273025092740220E030E0AA
:1021500040E85FE30E94B11787FD47C0C201B101AB
:102160000E94C916CB010E948006809104019091C3
:10217000050120916F02309170022817390731F064
:102180009093700280936F020E949B0AE0906F020E
:10219000F0907002C7010E940B0690930501809396
:1021A000040120911801309119018091080190914A
:1021B00009012817390769F00E943209C7010E94F6
:1021C0009B0A61E080E00E94FE0883EA91E00E94A1
:1021D000010A0E944F068230910511F1039729F1FF
:1021E0001093090100930801FACE8091B1008E7F0F
:1021F0008093B1008091B1008D7F8093B100809178
:10220000B1008B7F8093B10080E00E94790610922C
:102210007102109272021092730210927402A5CF92
:10222000D0921901C0921801DBCFB0921901A0928F
:102230001801D6CF0E948C00039709F095C08091B9
:102240007502811191C080910401909105019093D4
:1022500007018093060180911601909117019093D8
:1022600005018093040181E080937502E0900401F0
:10227000F090050160917102709172028091730279
:1022800090917402A7010E94FC041B012C01209272
:102290007102309272024092730250927402B7013E
:1022A0000F2C000C880B990B0E9401179B01AC01AD
:1022B000C201B1010E945216882339F0C201B10156
:1022C0000E94C916CB010E94800680916F029091F6
:1022D0007002E816F90639F0F0927002E0926F028F
:1022E000C7010E949B0AE0906F02F0907002C70144
:1022F0000E940B0690930501809304012091180120
:10230000309119018091080190910901281739072E
:10231000A1F00E943209C7010E949B0A61E080E09F
:102320000E94FE0888EA91E00E94010A61E087E0CD
:102330000E94E50181E00E94790690E080E00E9421
:10234000210A0E944F068230910529F183309105C0
:1023500039F1019721F41093190100931801D092DB
:102360000901C09208013BCE0E948C00892B09F024
:102370007DCF80917502882309F478CF1092750281
:1023800080910601909107019093050180930401CB
:102390000E949B0A6BCFD0921901C0921801DFCF27
:1023A000B0921901A0921801DACF0E948C00039715
:1023B00029F480917502882309F483C00E948C005F
:1023C000892B09F492C0E0900401F090050160911E
:1023D0007102709172028091730290917402A70150
:1023E0000E94FC041B012C012092710230927202A7
:1023F0004092730250927402B7010F2C000C880BAC
:10240000990B0E9401179B01AC01C201B1010E940E
:102410005216882339F0C201B1010E94C916CB01BE
:102420000E94800680916F0290917002E816F90672
:1024300039F0F0927002E0926F02C7010E949B0A8D
:10244000E0906F02F0907002C7010E940B0690931B
:1024500005018093040120911801309119018091A8
:1024600008019091090128173907A1F00E9432094B
:10247000C7010E949B0A61E080E00E94FE088EEA8C
:1024800091E00E94010A60E087E00E94E50181E09E
:102490000E94790681E090E00E94210A0E944F0686
:1024A00082309105A1F183309105B1F1019721F4BA
:1024B0001093190100931801B0920901A09208012C
:1024C0008ECD809104019091050190930701809336
:1024D0000601809116019091170190930501809358
:1024E000040181E0809375026ECF8091750288238C
:1024F00009F469CF1092750280910601909107014D
:1025000090930501809304010E949B0A5CCFD092B6
:102510001901C0921801D0CFB0921901A0921801F0
:10252000CBCF8091080190910901059791F00E940D
:10253000320960E080E00E94FE0883EB91E00E9497
:10254000010A61E080E00E94FE0884EC91E00E94B4
:10255000010A70920901609208017092190160925B
:1025600018010E944F06019709F039CD1093190107
:102570000093180134CD80916C02811118C00E9423
:10258000320960E080E00E94FE0886ED91E00E9442
:10259000010A61E080E00E94FE0880910E019091A6
:1025A0000F010E94D80981E080936C0218CD0E942F
:1025B000DD040097A1F144E6489F9001499F300D4A
:1025C000112480910E0190910F01820F931F382FDB
:1025D000292F8436910514F434E620E030930E015F
:1025E00020930F0145E050E063E070E0883EE3E0B7
:1025F0009E073CF08031974244F446E050E064E0AE
:1026000070E081E090E00E94060A61E080E00E94B4
:10261000FE0880910E0190910F010E94D8090E943E
:102620008C00059709F0DBCC80916D0290916E02D1
:10263000019690936E0280936D0210926C02CFCC43
:1026400080916C02811119C00E94320960E080E023
:102650000E94FE0886EE91E00E94010A61E080E09F
:102660000E94FE0860911001709111018091120189
:10267000909113010E94C10A96CF0E94DD04009739
:1026800071F2BC01990F880B990B0E9401172DEC78
:102690003CEC4CEC5DE30E94B617209110013091A8
:1026A000110140911201509113010E94E6151B0186
:1026B0002C012DEC3CEC4CEC5DE30E94521687FDA6
:1026C00039C020E030E040EA51E4C201B1010E948B
:1026D000B117181634F4212C312C30EA432E31E492
:1026E000532E20921001309211014092120150920B
:1026F000130120E030E040E251E4C201B1010E9448
:10270000521687FF08C045E050E063E070E081E0CA
:1027100090E00E94060A61E080E00E94FE0860915D
:1027200010017091110180911201909113010E948A
:10273000C10A75CF2DEC222E2CEC322E432C2DE32A
:10274000522ECFCF80916C02811113C00E943209AA
:1027500060E080E00E94FE0887EF91E00E94010A9D
:1027600061E080E00E94FE088091160190911701BF
:1027700018CF0E94DD04009709F451CFBC01990FD6
:10278000880B990B0E94011720E030E040E251E4F1
:102790000E94B6171B012C01609116017091170160
:1027A000072E000C880B990B0E9401179B01AC01AE
:1027B000C201B1010E94E6150E94C916653F21E0E1
:1027C000720714F064EF71E06A30710514F46AE086
:1027D00070E0709317016093160120E030E040E252
:1027E00051E460911001709111018091120190915A
:1027F00013010E94521687FF08C045E050E062E0D6
:1028000070E081E090E00E94060A61E080E00E94B2
:10281000FE088091160190911701FFCE80916C0205
:10282000811113C00E94320960E080E00E94FE081E
:1028300088E092E00E94010A61E080E00E94FE08C8
:102840008091140190911501ACCE0E94DD04009797
:1028500009F4E5CEBC01990F880B990B0E94011772
:1028600020E030E040E251E40E94B6171B012C0149
:102870006091140170911501072E000C880B990BC3
:102880000E9401179B01AC01C201B1010E94E61533
:102890000E94C916693C710514F068EC70E06A305A
:1028A000710514F46AE070E07093150160931401EF
:1028B00020901001309011014090120150901301AE
:1028C00020E030E040E251E4C201B1010E94521622
:1028D00045E050E062E070E087FD0EC020E030E0AF
:1028E00048EC52E4C201B1010E94521687FF08C0B1
:1028F00045E050E063E070E081E090E00E94060A6D
:1029000061E080E00E94FE08809114019091150121
:1029100084CE80916C02811117C00E94320960E060
:1029200080E00E94FE0886E192E00E94010A61E0D8
:1029300080E00E94FE0860910A0170910B01809175
:102940000C0190910D0196CE0E94DD04009709F4D0
:1029500066CEBC01990F880B990B0E9401172DECD4
:102960003CEC4CEC5DE30E94B61720910A013091DB
:102970000B0140910C0150910D010E94E6151B01C5
:102980002C012DEC3CEC4CE45EE30E94521687FDDA
:1029900024C020E030E040E050E4C201B1010E94D8
:1029A000B11718162CF4212C312C412C90E4592EFF
:1029B00020920A0130920B0140920C0150920D01BD
:1029C00061E080E00E94FE0860910A0170910B01B5
:1029D00080910C0190910D01AACE8DEC282E8CECEB
:1029E000382E8CE4482E8EE3582EE2CF80916C0274
:1029F000811113C00E94320960E080E00E94FE084D
:102A000087E292E00E94010A61E080E00E94FE08F5
:102A100085E392E00E94010AC6CD0E94DD04209168
:102A20006A0230916B02820F931F90936B02809326
:102A30006A0280FF40C061E080E00E94FE0888E3F7
:102A400092E00E94010A0E948C00059709F0C7CA13
:102A500086E090E090936E0280936D0210926C027B
:102A60008EE0EAE0F1E0DE011F9601900D928A957A
:102A7000E1F78EE0FE013F96DE01119601900D9286
:102A80008A95E1F7FE0131964F01F12CE12CF4011A
:102A900051904F01C7010E949315581621F0652DE2
:102AA000C7010E949B15FFEFEF1AFF0A2EE0E21606
:102AB000F10469F794CA45E050E062E070E081E01B
:102AC00090E00E94060A61E080E00E94FE0885E333
:102AD00092E00E94010A0E948C00059709F07FCACB
:102AE00087E090E0A6CD0E94320960E080E00E947D
:102AF000FE088CE392E00E94010A60ED77E080E03E
:102B000090E00E94B30281E090E0909319018093DD
:102B1000180165CA0E94320960E080E00E94FE0848
:102B200089E492E0E8CFF999FECF92BD81BDF89A91
:102B3000992780B50895262FF999FECF1FBA92BD27
:102B400081BD20BD0FB6F894FA9AF99A0FBE01968E
:102B50000895AA1BBB1B51E107C0AA1FBB1FA617E4
:102B6000B70710F0A61BB70B881F991F5A95A9F736
:102B700080959095BC01CD010895A1E21A2EAA1B63
:102B8000BB1BFD010DC0AA1FBB1FEE1FFF1FA2171D
:102B9000B307E407F50720F0A21BB30BE40BF50B1A
:102BA000661F771F881F991F1A9469F760957095A3
:102BB000809590959B01AC01BD01CF010895EE0F6A
:102BC000FF1F0590F491E02D09945058BB27AA27C8
:102BD0000E94FD150C9477170E94691738F00E9427
:102BE000701720F039F49F3F19F426F40C946617FF
:102BF0000EF4E095E7FB0C946017E92F0E9488170C
:102C000058F3BA17620773078407950720F079F421
:102C1000A6F50C94AA170EF4E0950B2EBA2FA02D52
:102C20000B01B90190010C01CA01A0011124FF2779
:102C3000591B99F0593F50F4503E68F11A16F04074
:102C4000A22F232F342F4427585FF3CF4695379573
:102C50002795A795F0405395C9F77EF41F16BA0B38
:102C6000620B730B840BBAF09150A1F0FF0FBB1FE6
:102C7000661F771F881FC2F70EC0BA0F621F731F2F
:102C8000841F48F4879577956795B795F7959E3F8C
:102C900008F0B0CF9395880F08F09927EE0F97951D
:102CA000879508950E943C1708F481E008950E94DA
:102CB0006B160C9477170E94701758F00E946917D2
:102CC00040F029F45F3F29F00C94601751110C94E7
:102CD000AB170C9466170E94881768F39923B1F319
:102CE000552391F3951B550BBB27AA276217730732
:102CF000840738F09F5F5F4F220F331F441FAA1FC6
:102D0000A9F335D00E2E3AF0E0E832D09150504081
:102D1000E695001CCAF72BD0FE2F29D0660F771F2F
:102D2000881FBB1F261737074807AB07B0E809F015
:102D3000BB0B802DBF01FF2793585F4F3AF09E3F9A
:102D4000510578F00C9460170C94AB175F3FE4F3D7
:102D5000983ED4F3869577956795B795F7959F5FDD
:102D6000C9F7880F911D9695879597F90895E1E029
:102D7000660F771F881FBB1F621773078407BA0788
:102D800020F0621B730B840BBA0BEE1F88F7E095E3
:102D900008950E94D0166894B1110C94AB17089551
:102DA0000E94901788F09F5798F0B92F9927B75134
:102DB000B0F0E1F0660F771F881F991F1AF0BA95DF
:102DC000C9F714C0B13091F00E94AA17B1E008957C
:102DD0000C94AA17672F782F8827B85F39F0B93F6E
:102DE000CCF3869577956795B395D9F73EF4909592
:102DF0008095709561957F4F8F4F9F4F0895E89410
:102E000009C097FB3EF490958095709561957F4F32
:102E10008F4F9F4F9923A9F0F92F96E9BB279395E0
:102E2000F695879577956795B795F111F8CFFAF4F0
:102E3000BB0F11F460FF1BC06F5F7F4F8F4F9F4F21
:102E400016C0882311F096E911C0772321F09EE87F
:102E5000872F762F05C0662371F096E8862F70E0E5
:102E600060E02AF09A95660F771F881FDAF7880FBF
:102E70009695879597F90895990F0008550FAA0B15
:102E8000E0E8FEEF16161706E807F907C0F012167D
:102E90001306E407F50798F0621B730B840B950B80
:102EA00039F40A2661F0232B242B252B21F40895D5
:102EB0000A2609F4A140A6958FEF811D811D089572
:102EC00097F99F6780E870E060E008959FEF80ECDD
:102ED000089500240A941616170618060906089580
:102EE00000240A9412161306140605060895092EE6
:102EF0000394000C11F4882352F0BB0F40F4BF2B55
:102F000011F460FF04C06F5F7F4F8F4F9F4F089594
:102F100057FD9058440F551F59F05F3F71F047958A
:102F2000880F97FB991F61F09F3F79F0879508956F
:102F3000121613061406551FF2CF4695F1DF08C08E
:102F4000161617061806991FF1CF869571056105AB
:102F500008940895E894BB2766277727CB0197F953
:102F600008950E943C1708F48FEF08950E94C91736
:102F70000C9477170E94691738F00E94701720F0A0
:102F8000952311F00C9460170C94661711240C947F
:102F9000AB170E94881770F3959FC1F3950F50E00F
:102FA000551F629FF001729FBB27F00DB11D639FFB
:102FB000AA27F00DB11DAA1F649F6627B00DA11DA1
:102FC000661F829F2227B00DA11D621F739FB00D47
:102FD000A11D621F839FA00D611D221F749F3327B7
:102FE000A00D611D231F849F600D211D822F762F50
:102FF0006A2F11249F5750409AF0F1F088234AF02D
:10300000EE0FFF1FBB1F661F771F881F9150504098
:10301000A9F79E3F510580F00C9460170C94AB17F4
:103020005F3FE4F3983ED4F3869577956795B7951F
:10303000F795E7959F5FC1F7FE2B880F911D969539
:10304000879597F908950E943C17880B990B08956E
:04305000F894FFCF22
:10305400CDCC4C3D0500050001006666E63F001935
:1030640000000040C8009001010001000800200099
:1030740040008000000100040000400014005400DF
:103084000000000064013701DA040D0130011D0164
:103094000E01000000008503E5021203D20343037E
:1030A40021033503000000004509E502DA04D904D0
:1030B4002D003E003C0046656564723A20006E6156
:1030C4006E00696E66006F76660042617369632004
:1030D400456E636F64657220546573743A000D0A1B
:1030E4000041725F506F776572466565640056658E
:1030F400723A0053544F50005249474854004C45CB
:103104004654004552523A204D4F56452053574994
:1031140054434800544F2053544F5020504F534968
:1031240054494F4E3A0044726976657220535445AF
:10313400502F524556004C65616453637265772085
:103144006D6D2F5245560053706565644D6F64650F
:10315400206D6D2F6D696E004163656C206D6D2F60
:103164006D696E5E32005374657020416E676C65E4
:10317400204D6F746F720053617665204368616EF1
:103184006765733F004E4F005945530056616C7597
:1031940065732053617665640056616C75657320B0
:0A31A400446973636172646564009E
:00000001FF
